:020000040000FA
:060000000A128A11122809
:10000800FE00030E83120313A7000408A8000A08C1
:10001800A9007F08AA000A128A113A280A128A112E
:1000280015280A128A1137270A128A11DF000A12C4
:100038008A1138270A128A11E0000A128A11392710
:100048000A128A11E1000A128A113A270A128A1141
:10005800E2008313493084005F300A128A1129278D
:100068000A128A1183010A128A111F298B1C3D2842
:100078003E284F288B105508560403194428452854
:100088004A28D501D60110100C104F280130D50090
:100098000030D60010140C1C522853281429550877
:1000A8005604031958285928132957035804031DBF
:1000B8005E285F2813290130C9070318CA0A0030CF
:1000C800CA07043049064A04031D6B286C28CB284C
:1000D8000130CB070318CC0A0030CC0702300A12D3
:1000E8008A1127250A128A117108FB007008FA0084
:1000F8000A30FC000030FD000A128A11BD260A12DF
:100108008A117A0883120313A3007B08A400031042
:10011800A40CA30C2308CF002408D0005008A10089
:100128004F08A0005930FF007F08A2000A128A1168
:10013800CF240A128A11831203135B08FF007F0879
:10014800AB005C08FF007F08AC002B08A300A401EB
:100158002308FA002408FB000A30FC000030FD00E8
:100168000A128A11BD260A128A11831203132C0857
:100178007A07A5000030031801307B07A600250880
:10018800CD070318CE0A2608CE07C901CA011E30BA
:100198004B064C04031DD128D22813291E30F50024
:1001A8000030F6004E08F8004D08F7000A128A11D0
:1001B80003260A128A118312031360087602031DAC
:1001C800E7285F0875020318EA28EB28F0280130B1
:1001D800D3000030D4000D291E30F5000030F600A1
:1001E8004E08F8004D08F7000A128A1103260A1271
:1001F8008A117608831203136002031D0529750806
:100208005F020318082909290D290130D10000309F
:10021800D20020308606CB01CC01CD01CE010C10D6
:100228002A08FF0029088A0028088400270E83006E
:10023800FE0E7E0E09000A128A110F270A128A1171
:100248000A128A1131270A128A11073083160313FA
:10025800850088018312031388018316031387120C
:1002680007118312031307118316031386138312CE
:10027800031386138316031386128312031386123D
:100288000A128A1120270A128A11831203135508A9
:100298005604031950295129F92957085804031DF0
:1002A8005629572965295008BE004F08BD00593006
:1002B800FF007F08BF000A128A11FF210A128A1163
:1002C800492953035404031D6A296B2978295008C6
:1002D800BE004F08BD005930FF007F08BF000A125A
:1002E8008A11BA220A128A11831203135103520483
:1002F800031D7F2980298D295008BE004F08BD00A5
:100308005930FF007F08BF000A128A116D230A12B4
:100318008A1102300A128A1175250A128A1183126B
:1003280003132E08B8002D08B7000A30B9000030B2
:10033800BA000A128A11E8260A128A1183120313D4
:100348003708C7003808C8000310C80CC70C47088E
:10035800CF004808D0005008BA004F08B9005930FB
:10036800FF007F08BB000A128A1173240A128A113F
:1003780083120313851205165B08FF007F08831696
:100388000313A00020080A128A1112240A128A11E3
:100398008312031388004E3083120313C800EA3017
:1003A800C700C70BD529C80BD52900008312031332
:1003B800051285165C08FF007F0883160313A10049
:1003C80021080A128A1112240A128A1183120313AD
:1003D80088004E3083120313C800EA30C700C70BE9
:1003E800F329C80BF3290000492985120512492968
:1003F8000A128A11122883120313C401C5018A2A1A
:1004080083120313871602300A128A1175250A12FD
:100418008A11831203132E08B8002D08B7000A307A
:10042800B9000030BA000A128A11E8260A128A11A5
:10043800831203133708C0003808C1000310C10C29
:10044800C00C4008CF004108D0005008BA004F083F
:10045800B9005930FF007F08BB000A128A117324C3
:100468000A128A1183120313851205165B08FF000E
:100478007F08C20042080A128A1112240A128A113D
:100488008312031388004E3083120313C100EA302D
:10049800C000C00B4D2AC10B4D2A00008312031364
:1004A800051285165C08FF007F08C30043080A127E
:1004B8008A1112240A128A118312031388004E30FB
:1004C80083120313C100EA30C000C00B692AC10BB4
:1004D800692A0000831203134208C000C1014008C2
:1004E800B7004108B8000A30B9000030BA000A1253
:1004F8008A11E8260A128A11831203134308370760
:10050800C4000030031801303807C50055085604E8
:1005180003198F2A902A9E2A6008803AC00045084D
:10052800803A4002031D9A2A44085F0203189D2A54
:100538009E2A042A831203134508803AC0006008E3
:10054800803A4002031DAA2A5F084402031CAD2A10
:10055800AE2AB42A013083120313D7000030D80022
:1005680083120313851205128712080083120313DE
:10057800C301C4014F2B8312031355035604031DF3
:10058800C62AC72A4C2B871602300A128A117525EB
:100598000A128A11831203132E08B8002D08B70017
:1005A8000A30B9000030BA000A128A11E8260A1285
:1005B8008A11831203133708C0003808C1000310DA
:1005C800C10CC00C4008CF004108D0005008BA0048
:1005D8004F08B9005930FF007F08BB000A128A1182
:1005E80073240A128A1183120313851205165B08F5
:1005F800FF007F08C50045080A128A1112240A1252
:100608008A118312031388004E3083120313C1002A
:10061800EA30C000C00B0E2BC10B0E2B000083125A
:100628000313051285165C08FF007F08C6004608FC
:100638000A128A1112240A128A11831203138800DB
:100648004E3083120313C100EA30C000C00B2A2BBE
:10065800C10B2A2B0000831203134508C000C101F7
:100668004008B7004108B8000A30B9000030BA00A5
:100678000A128A11E8260A128A11831203134608FD
:100688003707C3000030031801303807C4004F2B68
:100698008512051287125F080A3EC0006008031819
:1006A800013E003EC1004108803AC2004408803A39
:1006B8004202031D612B430840020318642B652B7B
:1006C800BF2A83120313D301D4018512051287129E
:1006D8000800503083120313C2000030C300022CFC
:1006E80055035604031D792B7A2BFF2B071502306F
:1006F8000A128A1175250A128A11831203132E0809
:10070800B8002D08B7000A30B9000030BA000A1244
:100718008A11E8260A128A11831203133708C000C7
:100728003808C1000310C10CC00C4008CF004108B4
:10073800D0005008BA004F08B9005930FF007F08B0
:10074800BB000A128A1173240A128A118312031336
:10075800851205165B08FF007F08C40044080A12CA
:100768008A1112240A128A118312031388004E3048
:1007780083120313C100EA30C000C00BC12BC10BA8
:10078800C12B000083120313051285165C08FF00B5
:100798007F08C50045080A128A1112240A128A1114
:1007A8008312031388004E3083120313C100EA300A
:1007B800C000C00BDD2BC10BDD2B0000831203131F
:1007C8004408C000C1014008B7004108B8000A3019
:1007D800B9000030BA000A128A11E8260A128A11F2
:1007E8008312031345083707C2000030031801308D
:1007F8003807C300022C851205120711600843064A
:10080800031D082C5F084206031D0B2C0C2C742BAF
:10081800D101D201851205120711080083120313B2
:10082800AF00382C3F30722C0630722C5B30722CA3
:100838004F30722C6630722C6D30722C7D30722CD9
:100848000730722C7F30722C6F30722C7730722CFC
:100858007C30722C5830722C5E30722C7930722CAD
:100868007130722C0030722C2F08AD00AE012E08AA
:10087800003A0319402C362C2D08003A0319162C7F
:10088800013A0319182C033A03191A2C013A0319CF
:100898001C2C073A03191E2C013A0319202C033A81
:1008A8000319222C013A0319242C0F3A0319262C78
:1008B800013A0319282C033A03192A2C013A03197F
:1008C8002C2C073A03192E2C013A0319302C033A21
:1008D8000319322C013A0319342C362C08006430E1
:1008E80083120313B2000030B3003A08B00039088D
:1008F800AF00E830AD000330AE000A128A11472677
:100908000A128A11831203132E08B5002D08B400A9
:100918000A128A11BD250A128A118312031332089A
:10092800FF003B08023E84007F08831380000A30E2
:10093800B2000030B3003A08B0003908AF006430A4
:10094800AD000030AE000A128A1147260A128A1139
:10095800831203132E08B5002D08B4000A128A1159
:10096800BD250A128A11831203133208FF003B08BF
:10097800033E84007F08831380003B08033E840005
:1009880000080319C82CC92CCE2C3B08033E840050
:100998000130800208006430F5000030F600831250
:1009A80003132108F3002008F200E830F0000330B8
:1009B800F1000A128A1183260A128A117108F800B6
:1009C8007008F7000A128A1103260A128A1175089C
:1009D800FF00831203132208023E84007F0883135A
:1009E80080000A30F5000030F6002108F3002008E6
:1009F800F2006430F0000030F1000A128A118326F8
:100A08000A128A117108F8007008F7000A128A1190
:100A180003260A128A117508FF008312031322089D
:100A2800033E84007F08831380002208033E84006D
:100A380000080319202D212D262D2208033E8400AD
:100A4800013080020800F900382D013083120313A9
:100A58009F004B2D0930831203139F004B2D11303B
:100A6800831203139F004B2D7908F200F3017308DA
:100A7800003A0319402D4B2D7208003A0319292D0D
:100A8800013A03192E2D033A0319332D4B2D8312E6
:100A980003131F151F19512D522D4E2D83160313A5
:100AA8001E08F20006300310F20CFF3E031D572DFE
:100AB8007208F300F401831203131E08F500F6010F
:100AC8000310F50DF60D0310F50DF60D73087504FA
:100AD800F70074087604F8007708F0007808F10049
:100AE800080083120313B600822D01309F00952D54
:100AF80009309F00952D11309F00952D3608AF00C5
:100B0800B0013008003A03198A2D952D2F08003AB4
:100B18000319792D013A03197C2D033A03197F2D06
:100B2800952D1F151F19992D9A2D962D8316031390
:100B38001E0883120313AF0006300310AF0CFF3EEC
:100B4800031DA12D2F08B000B1011E08B200B3018A
:100B58000310B20DB30D0310B20DB30D30083204FB
:100B6800B40031083304B5003408AD003508AE00D0
:100B7800080083120313B701B801320833040319BC
:100B8800C62DC72DFE2DB601B60AD52D013003108E
:100B9800B20DB30DFF3E031DCB2D0130FF007F08C2
:100BA800B607B31FD82DD92DCA2D01300310B70DA4
:100BB800B80DFF3E031DDA2D33083502031DE62D5F
:100BC80032083402031CE92DEA2DF12D3208B40253
:100BD8003308031CB503B502371401300310B30CF6
:100BE800B20CFF3E031DF22D0130B602031DFD2D90
:100BF800FE2DD92D3808B3003708B2000800F901D6
:100C0800FA017508760403190A2E0B2E422EFB01F1
:100C1800FB0A192E01300310F50DF60DFF3E031DDA
:100C28000F2E0130FF007F08FB07F61F1C2E1D2E1C
:100C38000E2E01300310F90DFA0DFF3E031D1E2E76
:100C480076087802031D2A2E75087702031C2D2EBC
:100C58002E2E352E7508F7027608031CF803F802C5
:100C6800791401300310F60CF50CFF3E031D362EE7
:100C78000130FB02031D412E422E1D2E7A08F6007C
:100C88007908F5000800831203132D082E040319B0
:100C98004E2E4F2E7E2EB101B10A5D2E013003106B
:100CA800AD0DAE0DFF3E031D532E0130FF007F0832
:100CB800B107AE1F602E612E522E2E083002031D82
:100CC800672E2D082F02031C6A2E6B2E712E2D08FD
:100CD800AF022E08031CB003B00201300310AE0CA3
:100CE800AD0CFF3E031D722E0130B102031D7D2E97
:100CF8007E2E612E3008AE002F08AD000800700867
:100D080071040319882E892EB82EF401F40A972E3F
:100D180001300310F00DF10DFF3E031D8D2E013043
:100D2800FF007F08F407F11F9A2E9B2E8C2E710866
:100D38007302031DA12E70087202031CA42EA52E97
:100D4800AB2E7008F2027108031CF303F3020130A2
:100D58000310F10CF00CFF3E031DAC2E0130F40221
:100D6800031DB72EB82E9B2E7308F1007208F000F1
:100D7800080083120313A001A1017A1CC42EC52EFA
:100D8800CD2E7C0883120313A0070318A10A7D083F
:100D9800A10701300310FC0DFD0DFF3E031DCE2EF3
:100DA80001300310FB0CFA0CFF3E031DD52E7A0808
:100DB8007B04031DE02EE12EC12E831203132108AC
:100DC800FB002008FA00080083120313BB01BC01D2
:100DD800371CEF2EF02EF62E3908BB070318BC0A75
:100DE8003A08BC0701300310B90DBA0DFF3E031DC8
:100DF800F72E01300310B80CB70CFF3E031DFE2E72
:100E080037083804031D092F0A2FEC2E3C08B800B8
:100E18003B08B70008003C30831203138F00AF3043
:100E28008E00901010129012831603130C14831264
:100E380003130C100B1708000230831603139F00CE
:100E48004130831203139F00080064008001840A64
:100E580004060319003404062A2F0B1683160313FD
:0E0E680001138B1708003234003401340034BB
:02400E003A3F37
:00000001FF
