:020000040000FA
:060000000A128A11122809
:10000800FE00030E83120313AD000408AE000A08B5
:10001800AF007F08B0000A128A11B6290A128A11A5
:10002800152883135D30FD000630FE004E30FF00BA
:10003800503084000A128A112E260A128A11C10130
:10004800C201C301C401C501C601C701C801C90174
:10005800CA01CB01CC01CD01CE01CF0183010A1227
:100068008A111E2A83120313861D3B283C284F2819
:10007800061E3F2840284F280A304506031D4528FC
:1000880046284928DD01C5014C29DC01DC0A01307C
:10009800FF007F08C50783160313A001A1010A12F8
:1000A8008A1184230A128A118312031386195D2880
:1000B8005E2886285C03031D6228632886285B085F
:1000C800803AFF0080307F02031D6C284B305A02B3
:1000D80003186F2870288628053083120313DA075F
:1000E8000318DB0A0030DB074E3083120313BE000F
:1000F800EA30BD00BD0B7E28BE0B7E2800008312AF
:100108000313DC0183120313061A8B288C28B428E6
:100118005C03031D90289128B4285B08803AFF00EF
:1001280080307F02031D9A2824305A02031C9D2820
:100138009E28B428FB3083120313DA070318DB0A5E
:10014800FF30DB074E3083120313BE00EA30BD00D8
:10015800BD0BAC28BE0BAC28000083120313DC01D6
:10016800013083160313A0070318A10A0030A10762
:100178002108803AFF0080307F02031DC52819300E
:100188002002031CC828C928532883120313051208
:10019800851283160313A201A301343083120313BB
:1001A800BE00F130BD00BD0BD728BE0BD728831287
:1001B80003138619E028E12809295C03031DE528B3
:1001C800E62809295B08803AFF0080307F02031D7A
:1001D800EF284B305A020318F228F3280929053072
:1001E80083120313DA070318DB0A0030DB074E30EB
:1001F80083120313BE00EA30BD00BD0B0129BE0BFC
:100208000129000083120313DC0183120313061A69
:100218000E290F2937295C03031D132914293729AF
:100228005B08803AFF0080307F02031D1D292430BF
:100238005A02031C202921293729FB308312031372
:10024800DA070318DB0AFF30DB074E30831203138B
:10025800BE00EA30BD00BD0B2F29BE0B2F290000C0
:1002680083120313DC01013083160313A20703185A
:10027800A30A0030A3072308803AFF0080307F02DA
:10028800031D482919302202031C4B294C29D12867
:10029800080083120313B601B21F532954295B299E
:1002A800B109B209B10A0319B20AB601B60AB41FF4
:1002B8005E295F296829B309B409B30A0319B40A86
:1002C8000130FF007F08B606B701B80131083204D3
:1002D80003196F297029A729B501B50A7E290130AC
:1002E8000310B10DB20DFF3E031D74290130FF004C
:1002F8007F08B507B21F81298229732901300310AD
:10030800B70DB80DFF3E031D832932083402031DC3
:100318008F2931083302031C922993299A2931081D
:10032800B3023208031CB403B402371401300310BB
:10033800B20CB10CFF3E031D9B290130B502031D11
:10034800A629A729822936080319AB29AC29B1297E
:10035800B709B809B70A0319B80A3808B200370844
:10036800B10008008B1CB929BA29D7298B10C429D8
:1003780010100C10DD01DD0AD7291014DD01D72972
:100388005D08AB00AC012C08003A0319CC29D72929
:100398002B08003A0319BC29013A0319C129033A69
:1003A8000319BC29D7290C1CDA29DB29132A0C10BC
:1003B8000130FF007F08C707C60104304706031D48
:1003C800E629E729F329C601C60A0130FF007F089C
:1003D800C807C7010A128A11D4220A128A110A30E0
:1003E800831203134806031DFA29FB29132A0A302E
:1003F800F5000030F6004208F8004108F7000A123C
:100408008A11C2240A128A11760883120313C400BF
:100418007508C30020308606C801C101C201300832
:10042800FF002F088A002E0884002D0E8300FE0E80
:100438007E0E09000A128A113D260A128A110A1232
:100448008A1166260A128A1107308316031385005B
:100458008801831203138801831603138712071177
:100468008312031307118712831603138613861545
:100478000616831203138613831603138612831238
:1004880003138612C801DD01DD0AC901C601C701CF
:10049800C101C201612A0A128A1106250A128A11AB
:1004A800612A0A128A1176260A128A11612A0A1208
:1004B8008A115B260A128A11612A831203135D08C6
:1004C800BF00C0014008003A03196B2A612A3F089F
:1004D800003A03194F2A013A0319552A033A031916
:1004E8005B2A612A0A128A11122883120313B601A1
:1004F800B41F7F2A802A872AB309B409B30A0319CB
:10050800B40AB601B60AB21F8A2A8B2A902AB10900
:10051800B209B10A0319B20A310832040319952A3B
:10052800962AC52AB501B50AA42A01300310B10DCF
:10053800B20DFF3E031D9A2A0130FF007F08B50760
:10054800B21FA72AA82A992A32083402031DAE2A04
:1005580031083302031CB12AB22AB82A3108B3027F
:100568003208031CB403B40201300310B20CB10CFE
:10057800FF3E031DB92A0130B502031DC42AC52A4E
:10058800A82A36080319C92ACA2ACF2AB309B409DE
:10059800B30A0319B40A3408B2003308B1000800DA
:1005A80002300A128A112E240A128A117108FB00DD
:1005B8007008FA000A30FC000030FD000A128A11A7
:1005C800E9250A128A117A0883120313A3007B080B
:1005D800A4000310A40CA30C2308A7002408A80057
:1005E8002808A1002708A0004A30FF007F08A200C1
:1005F8000A128A112C230A128A11831203134C0837
:10060800FF007F08A9004D08FF007F08AA002908FD
:10061800A300A4012308FA002408FB000A30FC0008
:100628000030FD000A128A11E9250A128A11831284
:1006380003132A087A07A5000030031801307B0746
:10064800A6002508C1070318C20A2608C207080021
:100658006430F5000030F600831203132108F3001C
:100668002008F200E830F0000330F1000A128A1185
:100678007F250A128A117108F8007008F7000A121B
:100688008A11C2240A128A117508FF008312031303
:100698002208023E84007F08831380000A30F50098
:1006A8000030F6002108F3002008F2006430F00062
:1006B8000030F1000A128A117F250A128A11710886
:1006C800F8007008F7000A128A11C2240A128A1167
:1006D8007508FF00831203132208033E84007F0875
:1006E800831380002208033E8400000803197D2B31
:1006F8007E2B832B2208033E8400013080020800F1
:100708000A3083120313B1000030B2005B08B40052
:100718005A08B3000A128A1179220A128A1183121E
:1007280003133108FF007F08BB000A30B100003016
:10073800B2005B08B4005A08B3000A128A114D21AE
:100748000A128A11831203133108FF007F08BC00C4
:1007580085163B080A128A1114260A128A111A30C1
:1007680083120313BA00F730B900B90BB92BBA0BCF
:10077800B92BBE2B8312031385123C080A128A1167
:1007880014260A128A118312031305161A308312CB
:100798000313BA00F730B900B90BD02BBA0BD02B22
:1007A800D52B83120313051208000A308312031392
:1007B800B1000030B2004408B4004308B3000A1284
:1007C8008A1143250A128A11831203133108FF0084
:1007D8007F08BA000A30B1000030B2004408B40003
:1007E8004308B3000A128A117C240A128A11831260
:1007F80003133108FF007F08BB0085163A080A1268
:100808008A1114260A128A111A3083120313B900A6
:10081800F730B800B80B0E2CB90B0E2C132C831222
:10082800031385123B080A128A1114260A128A1128
:100838008312031305161A3083120313B900F73015
:10084800B800B80B252CB90B252C2A2C83120313BE
:1008580005120800F9003F2C0130831203139F0092
:10086800522C0930831203139F00522C113083122B
:1008780003139F00522C7908F200F3017308003A21
:100888000319472C522C7208003A0319302C013AEC
:100898000319352C033A03193A2C522C83120313EB
:1008A8001F151F19582C592C552C831603131E0875
:1008B800F20006300310F20CFF3E031D5E2C720896
:1008C800F300F401831203131E08F500F601031068
:1008D800F50DF60D0310F50DF60D73087504F70008
:1008E80074087604F8007708F0007808F10008002A
:1008F80083120313B501B601310832040319852C9C
:10090800862CBD2CB701B70A942C01300310B10D09
:10091800B20DFF3E031D8A2C0130FF007F08B70788
:10092800B21F972C982C892C01300310B50DB60DE9
:10093800FF3E031D992C32083402031DA52C3108F3
:100948003302031CA82CA92CB02C3108B30232089E
:10095800031CB403B402351401300310B20CB10CFB
:10096800FF3E031DB12C0130B702031DBC2CBD2C6A
:10097800982C3608B2003508B1000800F901FA01D0
:10098800750876040319C92CCA2C012DFB01FB0A32
:10099800D82C01300310F50DF60DFF3E031DCE2CAB
:1009A8000130FF007F08FB07F61FDB2CDC2CCD2C69
:1009B80001300310F90DFA0DFF3E031DDD2C7608FA
:1009C8007802031DE92C75087702031CEC2CED2C2A
:1009D800F42C7508F7027608031CF803F80279145A
:1009E80001300310F60CF50CFF3E031DF52C013009
:1009F800FB02031D002D012DDC2C7A08F600790876
:100A0800F5000800831203131014861D0C2D0D2DFC
:100A1800112D061A102D112D162D0230FF007F08FA
:100A2800DD00422D0A128A11D9230A128A110A12EC
:100A38008A11B9250A128A112D2D0A128A116C26DB
:100A48000A128A11422D0A128A1171260A128A1173
:100A5800422D831203134908BC00BD013D08003A2A
:100A68000319372D422D3C08003A0319422D013A4B
:100A78000319212D033A0319272D422D080083124B
:100A880003133108320403194A2D4B2D7A2DB50171
:100A9800B50A592D01300310B10DB20DFF3E031DEB
:100AA8004F2D0130FF007F08B507B21F5C2D5D2D6B
:100AB8004E2D32083402031D632D31083302031C06
:100AC800662D672D6D2D3108B3023208031CB4035F
:100AD800B40201300310B20CB10CFF3E031D6E2DA1
:100AE8000130B502031D792D7A2D5D2D3408B20031
:100AF8003308B1000800700871040319842D852D8E
:100B0800B42DF401F40A932D01300310F00DF10D0A
:100B1800FF3E031D892D0130FF007F08F407F11FF8
:100B2800962D972D882D71087302031D9D2D700831
:100B38007202031CA02DA12DA72D7008F2027108C6
:100B4800031CF303F30201300310F10CF00CFF3E19
:100B5800031DA82D0130F402031DB32DB42D972DCC
:100B68007308F1007208F0000800831203135A0892
:100B7800053EB1005B080318013E003EB200440880
:100B88003202031DC92D430831020318CC2DCD2D87
:100B9800D02DC901C90AE82D5A08FB3EB1005B08EF
:100BA8000318013EFF3EB20032084402031DDE2D49
:100BB800310843020318E12DE22DE72D0230FF0032
:100BC8007F08C900E82DC901080083120313A0019A
:100BD800A1017A1CF02DF12DF92D7C088312031345
:100BE800A0070318A10A7D08A10701300310FC0D16
:100BF800FD0DFF3E031DFA2D01300310FB0CFA0C0E
:100C0800FF3E031D012E7A087B04031D0C2E0D2EBA
:100C1800ED2D831203132108FB002008FA000800B9
:100C280083120313B2000A30320203181C2E1D2E41
:100C3800282E3208503E840083130008FF007F08E6
:100C4800B10031088800292E880108007E088A0032
:100C58007F0882000A128A112A260A128A11800045
:100C6800840A04087D0603190034FF0A0319FE0AE2
:100C78002E2E3C30831203138F00AF308E0090105D
:100C880010129012831603130C14831203130C1002
:100C98000B170800BF3406345B344F3466346D34A8
:100CA8007D340734FF346F34283400340134831220
:100CB80003131010071187120A128A1136200A121C
:100CC8008A1108000B168316031301138B170800EB
:100CD800831203130715871208008312031387165C
:0E0CE80007110800831203130711871208007A
:02400E003A3F37
:00000001FF
