:020000040000FA
:060000000A128A11122809
:10000800FE00030E83120313AD000408AE000A08B5
:10001800AF007F08B0000A128A11B6290A128A11A5
:10002800152883135D30FD000630FE004B30FF00BD
:10003800503084000A128A112B260A128A11C10133
:10004800C201C301C401C501C601C701C801C90174
:10005800CA01CB01CC01CD01CE01CF0183010A1227
:100068008A111B2A83120313861D3B283C284F281C
:10007800061E3F2840284F280A304506031D4528FC
:1000880046284928DD01C5014C29DC01DC0A01307C
:10009800FF007F08C50783160313A001A1010A12F8
:1000A8008A1181230A128A118312031386195D2883
:1000B8005E2886285C03031D6228632886285B085F
:1000C800803AFF0080307F02031D6C284B305A02B3
:1000D80003186F2870288628053083120313DA075F
:1000E8000318DB0A0030DB074E3083120313BE000F
:1000F800EA30BD00BD0B7E28BE0B7E2800008312AF
:100108000313DC0183120313061A8B288C28B428E6
:100118005C03031D90289128B4285B08803AFF00EF
:1001280080307F02031D9A2824305A02031C9D2820
:100138009E28B428FB3083120313DA070318DB0A5E
:10014800FF30DB074E3083120313BE00EA30BD00D8
:10015800BD0BAC28BE0BAC28000083120313DC01D6
:10016800013083160313A0070318A10A0030A10762
:100178002108803AFF0080307F02031DC52819300E
:100188002002031CC828C928532883120313051208
:10019800851283160313A201A301343083120313BB
:1001A800BE00F130BD00BD0BD728BE0BD728831287
:1001B80003138619E028E12809295C03031DE528B3
:1001C800E62809295B08803AFF0080307F02031D7A
:1001D800EF284B305A020318F228F3280929053072
:1001E80083120313DA070318DB0A0030DB074E30EB
:1001F80083120313BE00EA30BD00BD0B0129BE0BFC
:100208000129000083120313DC0183120313061A69
:100218000E290F2937295C03031D132914293729AF
:100228005B08803AFF0080307F02031D1D292430BF
:100238005A02031C202921293729FB308312031372
:10024800DA070318DB0AFF30DB074E30831203138B
:10025800BE00EA30BD00BD0B2F29BE0B2F290000C0
:1002680083120313DC01013083160313A20703185A
:10027800A30A0030A3072308803AFF0080307F02DA
:10028800031D482919302202031C4B294C29D12867
:10029800080083120313B601B21F532954295B299E
:1002A800B109B209B10A0319B20AB601B60AB41FF4
:1002B8005E295F296829B309B409B30A0319B40A86
:1002C8000130FF007F08B606B701B80131083204D3
:1002D80003196F297029A729B501B50A7E290130AC
:1002E8000310B10DB20DFF3E031D74290130FF004C
:1002F8007F08B507B21F81298229732901300310AD
:10030800B70DB80DFF3E031D832932083402031DC3
:100318008F2931083302031C922993299A2931081D
:10032800B3023208031CB403B402371401300310BB
:10033800B20CB10CFF3E031D9B290130B502031D11
:10034800A629A729822936080319AB29AC29B1297E
:10035800B709B809B70A0319B80A3808B200370844
:10036800B10008008B1CB929BA29D4298B10C429DB
:1003780010100C10DD01DD0AD4291014DD01D42978
:100388005D08AB00AC012C08003A0319CC29D4292C
:100398002B08003A0319BC29013A0319C129D429A9
:1003A8000C1CD729D829102A0C100130FF007F080F
:1003B800C707C60104304706031DE329E429F029CD
:1003C800C601C60A0130FF007F08C807C7010A1224
:1003D8008A11D1220A128A110A308312031348069D
:1003E800031DF729F829102A0A30F5000030F60015
:1003F8004208F8004108F7000A128A11BF240A12BD
:100408008A11760883120313C4007508C3002030CC
:100418008606C801C101C2013008FF002F088A0002
:100428002E0884002D0E8300FE0E7E0E09000A128F
:100438008A113A260A128A110A128A1163260A12A6
:100448008A1107308316031385008801831203136A
:1004580088018316031387120711831203130711E8
:100468008712831603138613861506168312031341
:100478008613831603138612831203138612C80188
:10048800DD01DD0AC901C601C701C101C2015E2A39
:100498000A128A1103250A128A115E2A0A128A117F
:1004A80073260A128A115E2A0A128A1158260A121B
:1004B8008A115E2A831203135D08BF00C001400839
:1004C800003A0319682A5E2A3F08003A03194C2AA1
:1004D800013A0319522A033A0319582A5E2A0A12C2
:1004E8008A11122883120313B601B41F7C2A7D2AAD
:1004F800842AB309B409B30A0319B40AB601B60ABF
:10050800B21F872A882A8D2AB109B209B10A0319AC
:10051800B20A310832040319922A932AC22AB50171
:10052800B50AA12A01300310B10DB20DFF3E031D1B
:10053800972A0130FF007F08B507B21FA42AA52A11
:10054800962A32083402031DAB2A31083302031CF1
:10055800AE2AAF2AB52A3108B3023208031CB40305
:10056800B40201300310B20CB10CFF3E031DB62AD1
:100578000130B502031DC12AC22AA52A360803196B
:10058800C62AC72ACC2AB309B409B30A0319B40A7C
:100598003408B2003308B100080002300A128A1188
:1005A8002B240A128A117108FB007008FA000A301D
:1005B800FC000030FD000A128A11E6250A128A1191
:1005C8007A0883120313A3007B08A4000310A40C69
:1005D800A30C2308A7002408A8002808A1002708BE
:1005E800A0004A30FF007F08A2000A128A112923BE
:1005F8000A128A11831203134C08FF007F08A9000E
:100608004D08FF007F08AA002908A300A4012308B9
:10061800FA002408FB000A30FC000030FD000A1232
:100628008A11E6250A128A11831203132A087A0707
:10063800A5000030031801307B07A6002508C10774
:100648000318C20A2608C20708006430F500003003
:10065800F600831203132108F3002008F200E830A3
:10066800F0000330F1000A128A117C250A128A115F
:100678007108F8007008F7000A128A11BF240A12DC
:100688008A117508FF00831203132208023E8400B2
:100698007F08831380000A30F5000030F600210837
:1006A800F3002008F2006430F0000030F1000A1274
:1006B8008A117C250A128A117108F8007008F7005F
:1006C8000A128A11BF240A128A117508FF008312C0
:1006D80003132208033E84007F0883138000220846
:1006E800033E8400000803197A2B7B2B802B2208F9
:1006F800033E84000130800208000A30831203138D
:10070800B1000030B2005B08B4005A08B3000A1206
:100718008A1176220A128A11831203133108FF0004
:100728007F08BB000A30B1000030B2005B08B4009B
:100738005A08B3000A128A114D210A128A1183122B
:1007480003133108FF007F08BC0085163B080A1216
:100758008A1111260A128A111A3083120313BA0059
:10076800F730B900B90BB62BBA0BB62BBB2B8312DB
:10077800031385123C080A128A1111260A128A11DB
:100788008312031305161A3083120313BA00F730C5
:10079800B900B90BCD2BBA0BCD2BD22B8312031377
:1007A800051208000A3083120313B1000030B200AA
:1007B8004408B4004308B3000A128A1140250A12FB
:1007C8008A11831203133108FF007F08BA000A3028
:1007D800B1000030B2004408B4004308B3000A1264
:1007E8008A1179240A128A11831203133108FF002F
:1007F8007F08BB0085163A080A128A1111260A12C8
:100808008A111A3083120313B900F730B800B80BF5
:100818000B2CB90B0B2C102C8312031385123B08DD
:100828000A128A1111260A128A1183120313051655
:100838001A3083120313B900F730B800B80B222C12
:10084800B90B222C272C8312031305120800F90078
:100858003C2C0130831203139F004F2C0930831264
:1008680003139F004F2C1130831203139F004F2C4A
:100878007908F200F3017308003A0319442C4F2C4D
:100888007208003A03192D2C013A0319322C033A45
:100898000319372C4F2C831203131F151F19552CBE
:1008A800562C522C831603131E08F2000630031030
:1008B800F20CFF3E031D5B2C7208F300F401831257
:1008C80003131E08F500F6010310F50DF60D0310CD
:1008D800F50DF60D73087504F70074087604F80032
:1008E8007708F0007808F100080083120313B501B7
:1008F800B601310832040319822C832CBA2CB701B3
:10090800B70A912C01300310B10DB20DFF3E031D43
:10091800872C0130FF007F08B707B21F942C952C55
:10092800862C01300310B50DB60DFF3E031D962C25
:1009380032083402031DA22C31083302031CA52CF3
:10094800A62CAD2C3108B3023208031CB403B40240
:10095800351401300310B20CB10CFF3E031DAE2C50
:100968000130B702031DB92CBA2C952C3608B200F9
:100978003508B1000800F901FA0175087604031971
:10098800C62CC72CFE2CFB01FB0AD52C013003100A
:10099800F50DF60DFF3E031DCB2C0130FF007F083F
:1009A800FB07F61FD82CD92CCA2C01300310F90DDF
:1009B800FA0DFF3E031DDA2C76087802031DE62C9B
:1009C80075087702031CE92CEA2CF12C7508F7024C
:1009D8007608031CF803F802791401300310F60CAA
:1009E800F50CFF3E031DF22C0130FB02031DFD2C0C
:1009F800FE2CD92C7A08F6007908F5000800831235
:100A080003131014861D092D0A2D0E2D061A0D2DFF
:100A18000E2D132D0230FF007F08DD003F2D0A1236
:100A28008A11D6230A128A110A128A11B6250A12C5
:100A38008A112A2D0A128A1169260A128A113F2D53
:100A48000A128A116E260A128A113F2D8312031385
:100A58004908BC00BD013D08003A0319342D3F2D5B
:100A68003C08003A03193F2D013A03191E2D033A99
:100A78000319242D3F2D0800831203133108320473
:100A88000319472D482D772DB501B50A562D01308C
:100A98000310B10DB20DFF3E031D4C2D0130FF00B8
:100AA8007F08B507B21F592D5A2D4B2D3208340235
:100AB800031D602D31083302031C632D642D6A2D3C
:100AC8003108B3023208031CB403B4020130031026
:100AD800B20CB10CFF3E031D6B2D0130B502031D96
:100AE800762D772D5A2D3408B2003308B10008004E
:100AF800700871040319812D822DB12DF401F40AB7
:100B0800902D01300310F00DF10DFF3E031D862DD1
:100B18000130FF007F08F407F11F932D942D852DD8
:100B280071087302031D9A2D70087202031C9D2D13
:100B38009E2DA42D7008F2027108031CF303F30222
:100B480001300310F10CF00CFF3E031DA52D013000
:100B5800F402031DB02DB12D942D7308F100720815
:100B6800F0000800831203135A08053EB1005B0821
:100B78000318013E003EB20044083202031DC62D90
:100B8800430831020318C92DCA2DCD2DC901C90A40
:100B9800E52D5A08FB3EB1005B080318013EFF3EF5
:100BA800B20032084402031DDB2D3108430203184A
:100BB800DE2DDF2DE42D0230FF007F08C900E52D72
:100BC800C901080083120313A001A1017A1CED2DAD
:100BD800EE2DF62D7C0883120313A0070318A10A33
:100BE8007D08A10701300310FC0DFD0DFF3E031D1C
:100BF800F72D01300310FB0CFA0CFF3E031DFE2DF0
:100C08007A087B04031D092E0A2EEA2D831203138A
:100C18002108FB002008FA00080083120313B20021
:100C28000A3032020318192E1A2E252E3208503E89
:100C3800840083130008FF007F08B1003108880092
:100C4800262E880108007E088A007F0882000A1282
:100C58008A1127260A128A118000840A04087D0650
:100C680003190034FF0A0319FE0A2B2E3C308312A5
:100C780003138F00AF308E0090101012901283165D
:100C880003130C14831203130C100B170800BF3442
:100C980006345B344F3466346D347D340734FF34A6
:100CA8006F342834003401348312031310100711F1
:100CB80087120A128A1136200A128A1108000B16A6
:100CC8008316031301138B170800831203130715E8
:100CD800871208008312031387160711080083126E
:080CE800031307118712080035
:02400E003A3F37
:00000001FF
