:020000040000FA
:060000000A128A11122809
:10000800FE00030E83120313AD000408AE000A08B5
:10001800AF007F08B0000A128A110C2A0A128A114E
:10002800152883135330FD000730FE00F230FF001F
:10003800463084000A128A15F1270A128A11D30160
:10004800D401D501D601D701D801D901DA01DB01E4
:10005800DC0183010A128A11542983120313861DB5
:10006800362837285428061E3A283B2854280530B5
:100078005706031D402841284E28DE01D7015008A5
:10008800FF007F08B20000300A128A1154270A12B2
:100098008A115329D201D20A0130FF007F08D707FD
:1000A800C101C201831203135108BA005008B900F4
:1000B8000A128A115A240A128A1183120313861902
:1000C800662867288F285203031D6B286C288F2801
:1000D8005108803AFF0080307F02031D75284B309D
:1000E80050020318782879288F28053083120313C3
:1000F800D0070318D10A0030D1071A30831203132E
:10010800C000F730BF00BF0B8728C00B87288C289A
:1001180083120313D20183120313061A9428952815
:10012800BD285203031D99289A28BD285108803AF2
:10013800FF0080307F02031DA32824305002031CD7
:10014800A628A728BD28FB3083120313D00703185D
:10015800D10AFF30D1071A3083120313C000F730D9
:10016800BF00BF0BB528C00BB528BA2883120313EC
:10017800D201013083120313C1070318C20A0030E9
:10018800C2074208803AFF0080307F02031DCE2854
:1001980019304102031CD128D22856288312031390
:1001A80005128512C301C401343083120313C00041
:1001B800F130BF00BF0BDE28C00BDE28831203130B
:1001C8008619E728E82810295203031DEC28ED2892
:1001D80010295108803AFF0080307F02031DF6285D
:1001E8004B3050020318F928FA28102905308312D9
:1001F8000313D0070318D10A0030D1071A3083122D
:100208000313C000F730BF00BF0B0829C00B082933
:100218000D2983120313D20183120313061A152919
:1002280016293E295203031D1A291B293E29510864
:10023800803AFF0080307F02031D242924305002B9
:10024800031C272928293E29FB3083120313D007D2
:100258000318D10AFF30D1071A3083120313C000E4
:10026800F730BF00BF0B3629C00B36293B29831254
:100278000313D201013083120313C3070318C40AFE
:100288000030C4074408803AFF0080307F02031D15
:100298004F2919304302031C52295329D828080032
:1002A8000A128A15DC270A128A110A128A158E2761
:1002B8000A128A11003083120313C2000130C100F0
:1002C8008630C000A030BF000A128A1104240A1226
:1002D8008A110730831603138500880183120313DC
:1002E800880183160313871207118312031307115A
:1002F80087121930831603138600831203138601AD
:10030800D901DD01DD0A0A128A15A6270A128A1107
:1003180083120313DE01DE0ADA01D801D301D40106
:100328003C30D0000030D1000130B2000030B300C2
:100338000A128A111E270A128A11FF007F088312E7
:100348000313C500063083160313A6001330A50057
:10035800AD30A400A40BAE29A50BAE29A60BAE297F
:10036800831203134503031DBA29BB29D229003080
:10037800B200B3000A128A111E270A128A118316C4
:100388000313A400A501240883120313D0008316C5
:100398000313250883120313D100F229B201B20A0C
:1003A80001300A128A1154270A128A113C3083122A
:1003B8000313D0000030D100F2290A128A11302626
:1003C8000A128A11F2290A128A157F270A128A113B
:1003D800F2290A128A15B8270A128A1183120313FE
:1003E8005E0883160313A400A5012508003A031923
:1003F800FE29F2292408003A0319E129013A0319D0
:10040800E729033A0319ED29F2290A128A11122859
:100418008B1C0F2A102A2D2A8B101A2A10100C1048
:10042800DE01DE0A2D2A1014DE012D2A5E08AB003B
:10043800AC012C08003A0319222A2D2A2B08003A6D
:100448000319122A013A0319172A033A0319122A1F
:100458002D2A0C1C302A312A752A0C100130FF0075
:100468007F08D80704305806031D3B2A3C2A462A31
:100478000130FF007F08D907D8010A128A11AC237E
:100488000A128A110A30831203135906031D4D2AD2
:100498004E2A752A0A30F5000030F6005408F80094
:1004A8005308F7000A128A11EC250A128A117608F5
:1004B80083120313D6007508D5005A03031D652A55
:1004C800662A692A20308606722A02305A06031DD7
:1004D8006E2A6F2A712A8616722A8612D901D301CA
:1004E800D4013008FF002F088A002E0884002D0E42
:1004F8008300FE0E7E0E090083120313B601B21F9D
:10050800862A872A8E2AB109B209B10A0319B20AC2
:10051800B601B60AB41F912A922A9B2AB309B409D4
:10052800B30A0319B40A0130FF007F08B606B70101
:10053800B801310832040319A22AA32ADA2AB5011C
:10054800B50AB12A01300310B10DB20DFF3E031DEB
:10055800A72A0130FF007F08B507B21FB42AB52AC1
:10056800A62A01300310B70DB80DFF3E031DB62AA9
:1005780032083402031DC22A31083302031CC52A7B
:10058800C62ACD2A3108B3023208031CB403B402C8
:10059800371401300310B20CB10CFF3E031DCE2AF4
:1005A8000130B502031DD92ADA2AB52A36080319FB
:1005B800DE2ADF2AE42AB709B809B70A0319B80AF4
:1005C8003808B2003708B10008000030831203135E
:1005D800BD000030BC000030BB000030BA00340859
:1005E8003304320431040319FA2AFB2A482BBE01CA
:1005F800BE0A0B2B0130B9000310B10DB20DB30DBB
:10060800B40DB90B002B0130FF007F08BE07B41FE3
:100618000E2B0F2BFE2A0130B9000310BA0DBB0DAB
:10062800BC0DBD0DB90B112B34083802031D262B48
:1006380033083702031D262B32083602031D262BEA
:1006480031083502031C292B2A2B392B3108B50216
:100658003208031C320FB6023308031C330FB702EB
:100668003408031C340FB8023A1401300310B40CD8
:10067800B30CB20CB10CFF3E031D3A2B0130BE0285
:10068800031D472B482B0F2B3D08B4003C08B30033
:100698003B08B2003A08B100080083120313B60100
:1006A800B41F572B582B5F2BB309B409B30A03198E
:1006B800B40AB601B60AB21F622B632B682BB109C4
:1006C800B209B10A0319B20A3108320403196D2BB1
:1006D8006E2B9D2BB501B50A7C2B01300310B10D93
:1006E800B20DFF3E031D722B0130FF007F08B507D6
:1006F800B21F7F2B802B712B32083402031D862BEF
:1007080031083302031C892B8A2B902B3108B30242
:100718003208031CB403B40201300310B20CB10C4C
:10072800FF3E031D912B0130B502031D9C2B9D2B11
:10073800802B36080319A12BA22BA72BB309B409C8
:10074800B30A0319B40A3408B2003308B100080028
:1007580002300A128A1158250A128A117108FB0000
:100768007008FA000A30FC000030FD000A128A11F5
:1007780083270A128A117A0883120313A3007B08BD
:10078800A4000310A40CA30C2308A7002408A800A5
:100798002808A1002708A0005B30FF007F08A200FE
:1007A8000A128A1104250A128A11831203135B089C
:1007B800FF007F08A9005C08FF007F08AA0029083D
:1007C800A300A4012308FA002408FB000A30FC0057
:1007D8000030FD000A128A1183270A128A11831237
:1007E80003132A087A07A5000030031801307B0795
:1007F800A6002508D3070318D40A2608D40708003A
:100808002830831203139400831603139101831273
:1008180003133F0883160313A00083120313400831
:1008280083160313A10083120313410883160313CD
:10083800A20083120313420883160313A300023095
:100848000310A00DA10DA20DA30DFF3E031D242C26
:10085800230883120313B400831603132208831298
:100868000313B30083160313210883120313B20082
:1008780083160313200883120313B1000030B80055
:100888007A30B7001230B6000030B5000A128A116B
:10089800E9220A128A11831203133108FF3E8316D4
:1008A8000313930094018715071608000A30831272
:1008B8000313B1000030B2003A08B4003908B3009D
:1008C8000A128A1151230A128A118312031331085A
:1008D800FF007F08BD000A30B1000030B2003A08BE
:1008E800B4003908B3000A128A1180220A128A1148
:1008F800831203133108FF007F08BE0085163D08E8
:100908000A128A11DC270A128A111A308312031379
:10091800BC00F730BB00BB0B8F2CBC0B8F2C942C6E
:100928008312031385123E080A128A11DC270A1261
:100938008A118312031305161A3083120313BC009D
:10094800F730BB00BB0BA62CBC0BA62CAB2C831220
:100958000313051208000A3083120313B100003094
:10096800B2003908B4003808B3000A128A11712697
:100978000A128A11831203133108FF007F08BC0092
:100988000A30B1000030B2003908B4003808B300AA
:100998000A128A11A6250A128A1183120313310832
:1009A800FF007F08BD0085163C080A128A11DC2763
:1009B8000A128A111A3083120313BB00F730BA00E7
:1009C800BA0BE42CBB0BE42CE92C8312031385121D
:1009D8003D080A128A11DC270A128A1183120313AE
:1009E80005161A3083120313BB00F730BA00BA0B8E
:1009F800FB2CBB0BFB2C002D8312031305120800E4
:100A08006430F5000030F600831203132108F30068
:100A18002008F200E830F0000330F1000A128A11D1
:100A2800AD260A128A117108F8007008F7000A1238
:100A38008A11EC250A128A117508FF008312031324
:100A4800220884007F08831380000A30F5000030F4
:100A5800F6002108F3002008F2006430F0000030AE
:100A6800F1000A128A11AD260A128A117108F800DB
:100A78007008F7000A128A11EC250A128A11750803
:100A8800FF0083120313220A84007F088313800067
:100A9800220A840000080319522D532D572D220ACB
:100AA8008400013080020800F900692D01308312AA
:100AB80003139F007C2D0930831203139F007C2DA4
:100AC8001130831203139F007C2D7908F200F30183
:100AD8007308003A0319712D7C2D7208003A031926
:100AE8005A2D013A03195F2D033A0319642D7C2D01
:100AF800831203131F151F19822D832D7F2D831633
:100B080003131E08F20006300310F20CFF3E031D0B
:100B1800882D7208F300F401831203131E08F500F0
:100B2800F6010310F50DF60D0310F50DF60D73081B
:100B38007504F70074087604F8007708F000780860
:100B4800F100080083120313B501B601310832041D
:100B58000319AF2DB02DE72DB701B70ABE2D01300F
:100B68000310B10DB20DFF3E031DB42D0130FF007F
:100B78007F08B707B21FC12DC22DB32D0130031056
:100B8800B50DB60DFF3E031DC32D32083402031DFB
:100B9800CF2D31083302031CD22DD32DDA2D310885
:100BA800B3023208031CB403B40235140130031035
:100BB800B20CB10CFF3E031DDB2D0130B702031D43
:100BC800E62DE72DC22D3608B2003508B100080021
:100BD800F901FA01750876040319F32DF42D2B2E6B
:100BE800FB01FB0A022E01300310F50DF60DFF3E46
:100BF800031DF82D0130FF007F08FB07F61F052EA7
:100C0800062EF72D01300310F90DFA0DFF3E031DD6
:100C1800072E76087802031D132E75087702031C29
:100C2800162E172E1E2E7508F7027608031CF803D9
:100C3800F802791401300310F60CF50CFF3E031D81
:100C48001F2E0130FB02031D2A2E2B2E062E7A089A
:100C5800F6007908F5000800831203131014861DA6
:100C6800362E372E3B2E061A3A2E3B2E402E0230B9
:100C7800FF007F08DE00702E5608B9005508B8003E
:100C88000A128A11AF240A128A110A128A11E72657
:100C98000A128A115B2E0A128A1589270A128A11EA
:100CA800702E0A128A1584270A128A11702E83124E
:100CB80003135A08BE00BF013F08003A0319652E06
:100CC800702E3E08003A0319702E013A03194F2E70
:100CD800033A0319552E702E0800831203133108A6
:100CE80032040319782E792EA82EB501B50A872E5D
:100CF80001300310B10DB20DFF3E031D7D2E0130F2
:100D0800FF007F08B507B21F8A2E8B2E7C2E320873
:100D18003402031D912E31083302031C942E952EA4
:100D28009B2E3108B3023208031CB403B40201300D
:100D38000310B20CB10CFF3E031D9C2E0130B5020E
:100D4800031DA72EA82E8B2E3408B2003308B1003D
:100D58000800700871040319B22EB32EE22EF401B4
:100D6800F40AC12E01300310F00DF10DFF3E031DF2
:100D7800B72E0130FF007F08F407F11FC42EC52EDF
:100D8800B62E71087302031DCB2E70087202031C65
:100D9800CE2ECF2ED52E7008F2027108031CF30355
:100DA800F30201300310F10CF00CFF3E031DD62EA8
:100DB8000130F402031DE12EE22EC52E7308F10066
:100DC8007208F0000800831203135008053EB100B2
:100DD80051080318013E003EB20032085602031DB6
:100DE800F72E310855020318FA2EFB2E032F5D0348
:100DF800031DFF2E002F032FDA01DA0A1D2FDD0154
:100E080056085102031D0A2F5508500203180D2FCA
:100E18000E2F182F5D08031D122F132F182F0230C5
:100E2800FF007F08DA001D2FDD01DD0ADA01071156
:100E3800871208000A128A1594270A128A11A0300C
:100E48000A128A11C5270A128A118312031332085B
:100E58000A128A11C5270A128A110A128A159427BA
:100E68000A128A11A1300A128A11C5270A128A1198
:100E78000A128A11AE270A128A11FF007F0883120C
:100E88000313B4000A128A15C3270A128A110A1218
:100E98008A159D270A128A11831203133408080041
:100EA80083120313B3000A128A1594270A128A11AF
:100EB800622F0A128A15AF270A128A11A0300A1265
:100EC8008A11C5270A128A11003A031D6C2F6D2F4B
:100ED8005D2F8312031333080A128A11C5270A12D9
:100EE8008A118312031332080A128A11C5270A12BB
:100EF8008A110A128A159D270A128A11080083127C
:100F08000313A001A1017A1C8A2F8B2F932F7C0831
:100F180083120313A0070318A10A7D08A107013053
:100F28000310FC0DFD0DFF3E031D942F013003102F
:100F3800FB0CFA0CFF3E031D9B2F7A087B04031D54
:100F4800A62FA72F872F831203132108FB00200841
:100F5800FA0008000A128A15CF270A128A11831686
:100F68000313911583128C1DBA2FBB2FB62F8C112A
:100F78000A128A15CF270A128A118312031313083B
:100F8800080083120313B1000A128A15CF270A1228
:100F98008A1183120313310893008C1DD42FD52F87
:100FA800D12F8C11003083160313111B0130080058
:100FB80083120313B2000A3032020318E42FE52F1C
:100FC800F02F3208463E840083130008FF007F0894
:100FD800B10031088800F12F88010800BF340634B9
:100FE8005B344F3466346D347D340734FF346F34EA
:060FF8003C34003401341A
:101EFE00831203130711871208008312031387122C
:101F0E0007150800831203130711871608000B1616
:101F1E008316031301138B1708000A128A15CF2795
:101F2E000A128A1583160313111408000A128A1551
:101F3E00CF270A128A1583160313111508000230D3
:101F4E00831603139F004130831203139F00080072
:101F5E000A128A15CF270A128A15831603139114B3
:101F6E000800831203131010071187120A128A1128
:101F7E0031200A128A1508008316031391160A12CD
:101F8E008A15CF270A128A15831603131116080015
:101F9E00831603131419D42FD52FCF2F11081F39E1
:101FAE00031DDA2FDB2FCF2F08003C3083120313D3
:101FBE008F00AF308E009010101290128316031304
:101FCE000C14831203130C100B1708007E088A00E2
:101FDE007F0882000A128A15ED270A128A158000E0
:101FEE00840A04087D0603190034FF0A0319FE0A49
:021FFE00F12FC1
:02400E003A3F37
:00000001FF
