:020000040000FA
:060000000A128A11122809
:10000800FE00030E83120313AD000408AE000A08B5
:10001800AF007F08B0000A128A11E62A0A128A1174
:10002800152883135D30FD000F30FE00F230FF000D
:100038004F3084000A128A11DE270A128A11C00181
:10004800C101C201C301C401C501C601C701C8017C
:10005800C901CA01CB01CC01CD01CE0183010A122D
:100068008A11572983120313861D3B283C285928D7
:10007800061E3F284028592805304406031D4528F8
:1000880046285328DD01C4015908FF007F08B20043
:1000980000300A128A113C270A128A115629DB01FC
:1000A800DB0A0130FF007F08C40783160313A00191
:1000B800A1010A128A1159240A128A118312031300
:1000C80086196728682890285B03031D6C286D280B
:1000D80090285A08803AFF0080307F02031D762856
:1000E8004B305902031879287A2890280530831252
:1000F8000313D9070318DA0A0030DA071A30831213
:100108000313BE00F730BD00BD0B8828BE0B88283E
:100118008D2883120313DB0183120313061A952813
:100128009628BE285B03031D9A289B28BE285A08D8
:10013800803AFF0080307F02031DA4282430590232
:10014800031CA728A828BE28FB3083120313D9074D
:100158000318DA0AFF30DA071A3083120313BE00D5
:10016800F730BD00BD0BB628BE0BB628BB288312DE
:100178000313DB01013083160313A0070318A10A38
:100188000030A1072108803AFF0080307F02031D5C
:10019800CF2819302002031CD228D3285D288312C7
:1001A80003130512851283160313A201A301343029
:1001B80083120313BE00F130BD00BD0BE128BE0B56
:1001C800E128831203138619EA28EB2813295B0315
:1001D800031DEF28F02813295A08803AFF008030C1
:1001E8007F02031DF9284B3059020318FC28FD280B
:1001F8001329053083120313D9070318DA0A0030CC
:10020800DA071A3083120313BE00F730BD00BD0BA6
:100218000B29BE0B0B29102983120313DB01831250
:100228000313061A1829192941295B03031D1D29DF
:100238001E2941295A08803AFF0080307F02031D99
:10024800272924305902031C2A292B294129FB304C
:1002580083120313D9070318DA0AFF30DA071A30B2
:1002680083120313BE00F730BD00BD0B3929BE0B46
:1002780039293E2983120313DB0101308316031346
:10028800A2070318A30A0030A3072308803AFF0037
:1002980080307F02031D522919302202031C552980
:1002A8005629DB2808000A128A11ED270A128A113A
:1002B8000A128A15A4270A128A110030831603131A
:1002C800A3000130A2008630A100A030A0000A12CD
:1002D8008A1197250A128A1107308316031385009D
:1002E80088018312031388018316031387120711E9
:1002F80083120313071187128316031386138615B7
:1003080006168312031386138316031386128312A9
:1003180003138612C7010A128A15BC270A128A110A
:1003280083120313DD01DD0AC801C501C601C0013E
:10033800C1013C30D9000030DA000130B200003091
:10034800B3000A128A11D4260A128A11FF007F0804
:1003580083120313BF00063083160313AA00133059
:10036800A900AD30A800A80BB729A90BB729AA0B7B
:10037800B729831203133F03031DC329C429DB29AB
:100388000030B200B3000A128A11D4260A128A1168
:1003980083160313A800A901280883120313D900A0
:1003A80083160313290883120313DA00FB29B20109
:1003B800B20A01300A128A113C270A128A113C300B
:1003C80083120313D9000030DA00FB290A128A11BC
:1003D80021260A128A11FB290A128A1595270A1260
:1003E8008A11FB290A128A15CE270A128A1183124A
:1003F80003135D0883160313A800A9012908003A0E
:100408000319072AFB292808003A0319EA29013A9F
:100418000319F029033A0319F629FB290A128A114C
:10042800122883120313B601B21F1B2A1C2A232A7F
:10043800B109B209B10A0319B20AB601B60AB41F62
:10044800262A272A302AB309B409B30A0319B40A99
:100458000130FF007F08B606B701B8013108320441
:100468000319372A382A6F2AB501B50A462A0130F6
:100478000310B10DB20DFF3E031D3C2A0130FF00F1
:100488007F08B507B21F492A4A2A3B2A01300310C0
:10049800B70DB80DFF3E031D4B2A32083402031D69
:1004A800572A31083302031C5A2A5B2A622A310868
:1004B800B3023208031CB403B4023714013003102A
:1004C800B20CB10CFF3E031D632A0130B502031DB7
:1004D8006E2A6F2A4A2A36080319732A742A792A37
:1004E800B709B809B70A0319B80A3808B2003708B3
:1004F800B1000800003083120313BD000030BC00B7
:100508000030BB000030BA00340833043204310430
:1005180003198F2A902ADD2ABE01BE0AA02A0130BB
:10052800B9000310B10DB20DB30DB40DB90B952A76
:100538000130FF007F08BE07B41FA32AA42A932A0C
:100548000130B9000310BA0DBB0DBC0DBD0DB90BC0
:10055800A62A34083802031DBB2A33083702031DB4
:10056800BB2A32083602031DBB2A31083502031C98
:10057800BE2ABF2ACE2A3108B5023208031C320F20
:10058800B6023308031C330FB7023408031C340FB8
:10059800B8023A1401300310B40CB30CB20CB10C0D
:1005A800FF3E031DCF2A0130BE02031DDC2ADD2ACF
:1005B800A42A3D08B4003C08B3003B08B2003A083E
:1005C800B10008008B1CE92AEA2A072B8B10F42AB1
:1005D80010100C10DD01DD0A072B1014DD01072BAC
:1005E8005D08AB00AC012C08003A0319FC2A072B64
:1005F8002B08003A0319EC2A013A0319F12A033AA5
:100608000319EC2A072B0C1C0A2B0B2B432B0C1061
:100618000130FF007F08C607C50104304606031DE8
:10062800162B172B232BC501C50A0130FF007F08A5
:10063800C707C6010A128A11A9230A128A110A30A9
:10064800831203134706031D2A2B2B2B432B0A3037
:10065800F5000030F6004108F8004008F7000A12DB
:100668008A11DD250A128A11760883120313C30042
:100678007508C20020308606C701C001C1013008D4
:10068800FF002F088A002E0884002D0E8300FE0E1E
:100698007E0E090083120313B601B41F542B552B89
:1006A8005C2BB309B409B30A0319B40AB601B60A34
:1006B800B21F5F2B602B652BB109B209B10A031970
:1006C800B20A3108320403196A2B6B2B9A2BB50135
:1006D800B50A792B01300310B10DB20DFF3E031D91
:1006E8006F2B0130FF007F08B507B21F7C2B7D2BD5
:1006F8006E2B32083402031D832B31083302031C8E
:10070800862B872B8D2B3108B3023208031CB403C8
:10071800B40201300310B20CB10CFF3E031D8E2B46
:100728000130B502031D992B9A2B7D2B360803192E
:100738009E2B9F2BA42BB309B409B30A0319B40A3F
:100748003408B2003308B100080002300A128A11D6
:1007580003250A128A117108FB007008FA000A3092
:10076800FC000030FD000A128A116B270A128A1158
:100778007A0883120313A3007B08A4000310A40CB7
:10078800A30C2308A7002408A8002808A10027080C
:10079800A0004930FF007F08A2000A128A11012434
:1007A8000A128A11831203134B08FF007F08A9005D
:1007B8004C08FF007F08AA002908A300A401230809
:1007C800FA002408FB000A30FC000030FD000A1281
:1007D8008A116B270A128A11831203132A087A07CF
:1007E800A5000030031801307B07A6002508C007C4
:1007F8000318C10A2608C10708006430F500003054
:10080800F600831203132108F3002008F200E830F1
:10081800F0000330F1000A128A119A260A128A118E
:100828007108F8007008F7000A128A11DD250A120B
:100838008A117508FF00831203132208023E840000
:100848007F08831380000A30F5000030F600210885
:10085800F3002008F2006430F0000030F1000A12C2
:100868008A119A260A128A117108F8007008F7008E
:100878000A128A11DD250A128A117508FF008312EF
:1008880003132208033E84007F0883138000220894
:10089800033E840000080319522C532C582C2208BC
:1008A800033E84000130800208000A3083120313DB
:1008B800B1000030B2005A08B4005908B3000A1257
:1008C8008A114E230A128A11831203133108FF007A
:1008D8007F08BB000A30B1000030B2005A08B400EB
:1008E8005908B3000A128A1115220A128A118312B2
:1008F80003133108FF007F08BC0085163B080A1265
:100908008A11C4270A128A111A3083120313BA00F3
:10091800F730B900B90B8E2CBA0B8E2C932C83129E
:10092800031385123C080A128A11C4270A128A1175
:100938008312031305161A3083120313BA00F73013
:10094800B900B90BA52CBA0BA52CAA2C831203133A
:10095800051208000A3083120313B1000030B200F8
:100968004308B4004208B3000A128A115E260A122C
:100978008A11831203133108FF007F08BA000A3076
:10098800B1000030B2004308B4004208B3000A12B4
:100998008A1151250A128A11831203133108FF00A4
:1009A8007F08BB0085163A080A128A11C4270A1262
:1009B8008A111A3083120313B900F730B800B80B44
:1009C800E32CB90BE32CE82C8312031385123B08A4
:1009D8000A128A11C4270A128A11831203130516F0
:1009E8001A3083120313B900F730B800B80BFA2C89
:1009F800B90BFA2CFF2C8312031305120800F90017
:100A0800142D0130831203139F00272D0930831200
:100A180003139F00272D1130831203139F00272DE6
:100A28007908F200F3017308003A03191C2D272DE9
:100A38007208003A0319052D013A03190A2D033AE1
:100A480003190F2D272D831203131F151F192D2D81
:100A58002E2D2A2D831603131E08F20006300310CC
:100A6800F20CFF3E031D332D7208F300F4018312CC
:100A780003131E08F500F6010310F50DF60D03101B
:100A8800F50DF60D73087504F70074087604F80080
:100A98007708F0007808F100080083120313B50105
:100AA800B6013108320403195A2D5B2D922DB70176
:100AB800B70A692D01300310B10DB20DFF3E031DB9
:100AC8005F2D0130FF007F08B707B21F6C2D6D2D19
:100AD8005E2D01300310B50DB60DFF3E031D6E2DC2
:100AE80032083402031D7A2D31083302031C7D2D90
:100AF8007E2D852D3108B3023208031CB403B402DD
:100B0800351401300310B20CB10CFF3E031D862DC5
:100B18000130B702031D912D922D6D2D3608B200BC
:100B28003508B10008002830831203139400831697
:100B3800031391012008A4002108A5002208A6009B
:100B48002308A70002300310A40DA50DA60DA70DBC
:100B5800FF3E031DA72D270883120313B400831635
:100B68000313260883120313B300831603132508FF
:100B780083120313B200831603132408831203138A
:100B8800B1000030B8007A30B7001230B60000303B
:100B9800B5000A128A117E220A128A1183120313DF
:100BA8003108FF3E83160313930094018715071637
:100BB8000800F901FA01750876040319E42DE52DFA
:100BC8001C2EFB01FB0AF32D01300310F50DF60D69
:100BD800FF3E031DE92D0130FF007F08FB07F61FCC
:100BE800F62DF72DE82D01300310F90DFA0DFF3E13
:100BF800031DF82D76087802031D042E7508770268
:100C0800031C072E082E0F2E7508F7027608031C02
:100C1800F803F802791401300310F60CF50CFF3EC6
:100C2800031D102E0130FB02031D1B2E1C2EF72D59
:100C38007A08F6007908F5000800831203131014E7
:100C4800861D272E282E2C2E061A2B2E2C2E312EC2
:100C58000230FF007F08DD005D2E0A128A11AE24E3
:100C68000A128A110A128A110A270A128A11482EB0
:100C78000A128A159F270A128A115D2E0A128A15EE
:100C88009A270A128A115D2E831203134808BC00A2
:100C9800BD013D08003A0319522E5D2E3C08003A6A
:100CA80003195D2E013A03193C2E033A0319422E0B
:100CB8005D2E080083120313310832040319652ED0
:100CC800662E952EB501B50A742E01300310B10DAC
:100CD800B20DFF3E031D6A2E0130FF007F08B507E5
:100CE800B21F772E782E692E32083402031D7E2E0D
:100CF80031083302031C812E822E882E3108B3025C
:100D08003208031CB403B40201300310B20CB10C56
:100D1800FF3E031D892E0130B502031D942E952E2A
:100D2800782E3408B2003308B10008007008710446
:100D380003199F2EA02ECF2EF401F40AAE2E0130F7
:100D48000310F00DF10DFF3E031DA42E0130FF002E
:100D58007F08F407F11FB12EB22EA32E710873027B
:100D6800031DB82E70087202031CBB2EBC2EC22EA7
:100D78007008F2027108031CF303F3020130031038
:100D8800F10CF00CFF3E031DC32E0130F402031DCD
:100D9800CE2ECF2EB22E7308F1007208F000080094
:100DA8000A128A15AA270A128A11A0300A128A1171
:100DB800AD270A128A118312031332080A128A1104
:100DC800AD270A128A110A128A15AA270A128A114D
:100DD800A1300A128A11AD270A128A110A128A1141
:100DE80096270A128A11FF007F0883120313B400A2
:100DF8000A128A15D9270A128A110A128A15B327E4
:100E08000A128A1183120313340808008312031389
:100E18005908053EB1005A080318013E003EB200C9
:100E280032084302031D1A2F3108420203181D2FEE
:100E38001E2F262F5C03031D222F232F262FC801C8
:100E4800C80A3B2FDC0143085A02031D2D2F420814
:100E580059020318302F312F362F0230FF007F0838
:100E6800C8003B2FDC01DC0AC80107118712080003
:100E780083120313B3000A128A15AA270A128A11C9
:100E88004A2F0A128A15C5270A128A11A0300A1297
:100E98008A11AD270A128A11003A031D542F552FC3
:100EA800452F8312031333080A128A11AD270A1239
:100EB8008A118312031332080A128A11AD270A1203
:100EC8008A110A128A15B3270A128A110800831296
:100ED8000313A001A1017A1C722F732F7B2F7C08AA
:100EE80083120313A0070318A10A7D08A107013084
:100EF8000310FC0DFD0DFF3E031D7C2F0130031078
:100F0800FB0CFA0CFF3E031D832F7A087B04031D9C
:100F18008E2F8F2F6F2F831203132108FB002008B9
:100F2800FA0008000A128A15E5270A128A118316A0
:100F38000313911583128C1DA22FA32F9E2F8C11A2
:100F48000A128A15E5270A128A1183120313130855
:100F5800080083120313B1000A128A15E5270A1242
:100F68008A1183120313310893008C1DBC2FBD2FE7
:100F7800B92F8C11003083160313111B01300800A0
:100F880083120313B2000A3032020318CC2FCD2F7C
:100F9800D82F32084F3E840083130008FF007F08D3
:100FA800B10031088800D92F880108007E088A001E
:100FB8007F0882000A128A11DA270A128A11800031
:100FC800840A04087D0603190034FF0A0319FE0A7F
:100FD800DE2F3C30831203138F00AF308E00901049
:100FE80010129012831603130C14831203130C109F
:040FF8000B170800CB
:101F2A0083120313071187120800831203138712FF
:101F3A0007150800831203130711871608000B16EA
:101F4A008316031301138B1708000A128A15E52753
:101F5A000A128A1583160313111408000A128A1525
:101F6A00E5270A128A158316031311150800023091
:101F7A00831603139F004130831203139F00080046
:101F8A000A128A15E5270A128A1583160313911471
:101F9A000800831203131010071187120A128A11FC
:101FAA0036200A128A1508008316031391160A129C
:101FBA008A15E5270A128A158316031311160800D3
:101FCA00831603131419EA2FEB2FE52F11081F3973
:101FDA00031DF02FF12FE52F0800BF3406345B34C0
:101FEA004F3466346D347D340734FF346F343C34F7
:061FFA0000340134013443
:02400E003A3F37
:00000001FF
