:020000040000FA
:060000000A128A11122809
:10000800FE00030E83120313AD000408AE000A08B5
:10001800AF007F08B0000A128A11932A0A128A11C7
:10002800152883135E30FD000730FE001830FF00EE
:10003800503084000A128A11F8260A128A11C10166
:10004800C201C301C401C501C601C701C801C90174
:10005800CA01CB01CC01CD01CE01CF0183010A1227
:100068008A114D2983120313861D3B283C284F28EB
:10007800061E3F2840284F2805304506031D452801
:1000880046284928DE01C5014C29DC01DC0A01307B
:10009800FF007F08C50783160313A001A1010A12F8
:1000A8008A1106240A128A118312031386195D28FD
:1000B8005E2886285C03031D6228632886285B085F
:1000C800803AFF0080307F02031D6C284B305A02B3
:1000D80003186F2870288628053083120313DA075F
:1000E8000318DB0A0030DB071A3083120313BE0043
:1000F800F730BD00BD0B7E28BE0B7E2883288312F7
:100108000313DC0183120313061A8B288C28B428E6
:100118005C03031D90289128B4285B08803AFF00EF
:1001280080307F02031D9A2824305A02031C9D2820
:100138009E28B428FB3083120313DA070318DB0A5E
:10014800FF30DB071A3083120313BE00F730BD00FF
:10015800BD0BAC28BE0BAC28B12883120313DC01FD
:10016800013083160313A0070318A10A0030A10762
:100178002108803AFF0080307F02031DC52819300E
:100188002002031CC828C928532883120313051208
:10019800851283160313A201A301343083120313BB
:1001A800BE00F130BD00BD0BD728BE0BD728831287
:1001B80003138619E028E12809295C03031DE528B3
:1001C800E62809295B08803AFF0080307F02031D7A
:1001D800EF284B305A020318F228F3280929053072
:1001E80083120313DA070318DB0A0030DB071A301F
:1001F80083120313BE00F730BD00BD0B0129BE0BEF
:100208000129062983120313DC0183120313061A3A
:100218000E290F2937295C03031D132914293729AF
:100228005B08803AFF0080307F02031D1D292430BF
:100238005A02031C202921293729FB308312031372
:10024800DA070318DB0AFF30DB071A3083120313BF
:10025800BE00F730BD00BD0B2F29BE0B2F29342956
:1002680083120313DC01013083160313A20703185A
:10027800A30A0030A3072308803AFF0080307F02DA
:10028800031D482919302202031C4B294C29D12867
:1002980008000A128A1107270A128A110A128A11FB
:1002A8003A270A128A11003083160313A30001307B
:1002B800A2008630A100A030A0000A128A114425AD
:1002C8000A128A11073083160313850088018312E6
:1002D800031388018316031387120711831203136C
:1002E80007118712831603138613861506168312C1
:1002F80003138613831603138612831203138612BD
:10030800C8010A128A1131270A128A1183120313AB
:10031800DE01DE0AC901C601C701C101C2013C30C4
:10032800DA000030DB00AA290A128A11CE250A1247
:100338008A11AA290A128A114A270A128A11AA2995
:100348000A128A1126270A128A11AA29831203136C
:100358005E08BF00C0014008003A0319B429AA2961
:100368003F08003A03199829013A03199E29033ACC
:100378000319A429AA290A128A111228831203131D
:10038800B601B21FC829C929D029B109B209B10AD1
:100398000319B20AB601B60AB41FD329D429DD2934
:1003A800B309B409B30A0319B40A0130FF007F087E
:1003B800B606B701B801310832040319E429E52962
:1003C8001C2AB501B50AF32901300310B10DB20D8D
:1003D800FF3E031DE9290130FF007F08B507B21F62
:1003E800F629F729E82901300310B70DB80DFF3EAB
:1003F800031DF82932083402031D042A3108330288
:10040800031C072A082A0F2A3108B3023208031CE2
:10041800B403B402371401300310B20CB10CFF3E20
:10042800031D102A0130B502031D1B2A1C2AF729B7
:1004380036080319202A212A262AB709B809B70A33
:100448000319B80A3808B2003708B10008000030AC
:1004580083120313BD000030BC000030BB00003025
:10046800BA00340833043204310403193C2A3D2A03
:100478008A2ABE01BE0A4D2A0130B9000310B10D07
:10048800B20DB30DB40DB90B422A0130FF007F083D
:10049800BE07B41F502A512A402A0130B900031060
:1004A800BA0DBB0DBC0DBD0DB90B532A340838026B
:1004B800031D682A33083702031D682A32083602EA
:1004C800031D682A31083502031C6B2A6C2A7B2A13
:1004D8003108B5023208031C320FB6023308031C78
:1004E800330FB7023408031C340FB8023A14013032
:1004F8000310B40CB30CB20CB10CFF3E031D7C2AE4
:100508000130BE02031D892A8A2A512A3D08B400F7
:100518003C08B3003B08B2003A08B10008008B1C45
:10052800962A972AB42A8B10A12A10100C10DE01E3
:10053800DE0AB42A1014DE01B42A5E08AB00AC014E
:100548002C08003A0319A92AB42A2B08003A0319DF
:10055800992A013A03199E2A033A0319992AB42AB7
:100568000C1CB72AB82AF02A0C100130FF007F08AB
:10057800C707C60104304706031DC32AC42AD02A68
:10058800C601C60A0130FF007F08C807C7010A1262
:100598008A1156230A128A110A3083120313480655
:1005A800031DD72AD82AF02A0A30F5000030F600B1
:1005B8004208F8004108F7000A128A118A250A122F
:1005C8008A11760883120313C4007508C30020300B
:1005D8008606C801C101C2013008FF002F088A0041
:1005E8002E0884002D0E8300FE0E7E0E0900831255
:1005F8000313B601B41F012B022B092BB309B4094D
:10060800B30A0319B40AB601B60AB21F0C2B0D2B94
:10061800122BB109B209B10A0319B20A310832041E
:100628000319172B182B472BB501B50A262B0130B8
:100638000310B10DB20DFF3E031D1C2B0130FF004E
:100648007F08B507B21F292B2A2B1B2B320834022F
:10065800031D302B31083302031C332B342B3A2B68
:100668003108B3023208031CB403B402013003108A
:10067800B20CB10CFF3E031D3B2B0130B502031D2C
:10068800462B472B2A2B360803194B2B4C2B512B67
:10069800B309B409B30A0319B40A3408B200330819
:1006A800B100080002300A128A11B0240A128A1115
:1006B8007108FB007008FA000A30FC000030FD00E9
:1006C8000A128A11B3260A128A117A0883120313AE
:1006D800A3007B08A4000310A40CA30C2308A70004
:1006E8002408A8002808A1002708A0004A30FF0015
:1006F8007F08A2000A128A11AE230A128A118312F5
:1007080003134C08FF007F08A9004D08FF007F086D
:10071800AA002908A300A4012308FA002408FB0062
:100728000A30FC000030FD000A128A11B3260A12B2
:100738008A11831203132A087A07A50000300318C8
:1007480001307B07A6002508C1070318C20A26083E
:10075800C20708006430F5000030F6008312031366
:100768002108F3002008F200E830F0000330F1001F
:100778000A128A1147260A128A117108F8007008AD
:10078800F7000A128A118A250A128A117508FF00D1
:10079800831203132208023E84007F08831380001B
:1007A8000A30F5000030F6002108F3002008F200B6
:1007B8006430F0000030F1000A128A1147260A124C
:1007C8008A117108F8007008F7000A128A118A2540
:1007D8000A128A117508FF00831203132208033EC8
:1007E80084007F08831380002208033E84000008E9
:1007F8000319FF2B002C052C2208033E840001302E
:10080800800208000A3083120313B1000030B200DE
:100818005B08B4005A08B3000A128A11FB220A12B4
:100828008A11831203133108FF007F08BB000A30C6
:10083800B1000030B2005B08B4005A08B3000A12D5
:100848008A11C2210A128A11831203133108FF0088
:100858007F08BC0085163B080A128A11DE260A1298
:100868008A111A3083120313BA00F730B900B90B92
:100878003B2CBA0B3B2C402C8312031385123C08EB
:100888000A128A11DE260A128A1183120313051628
:100898001A3083120313BA00F730B900B90B522C7F
:1008A800BA0B522C572C83120313051208000A3076
:1008B80083120313B1000030B2004408B4004308A7
:1008C800B3000A128A110B260A128A118312031323
:1008D8003108FF007F08BA000A30B1000030B200CA
:1008E8004408B4004308B3000A128A11FE240A120D
:1008F8008A11831203133108FF007F08BB00851695
:100908003A080A128A11DE260A128A111A3083124C
:100918000313B900F730B800B80B902CB90B902C22
:10092800952C8312031385123B080A128A11DE26BE
:100938000A128A118312031305161A30831203133D
:10094800B900F730B800B80BA72CB90BA72CAC2C02
:100958008312031305120800F900C12C0130831219
:1009680003139F00D42C0930831203139F00D42C47
:100978001130831203139F00D42C7908F200F3017D
:100988007308003A0319C92CD42C7208003A0319C9
:10099800B22C013A0319B72C033A0319BC2CD42CF6
:1009A800831203131F151F19DA2CDB2CD72C83167F
:1009B80003131E08F20006300310F20CFF3E031D5D
:1009C800E02C7208F300F401831203131E08F500EB
:1009D800F6010310F50DF60D0310F50DF60D73086D
:1009E8007504F70074087604F8007708F0007808B2
:1009F800F100080083120313B501B601310832046F
:100A08000319072D082D3F2DB701B70A162D013000
:100A18000310B10DB20DFF3E031D0C2D0130FF0078
:100A28007F08B707B21F192D1A2D0B2D013003109F
:100A3800B50DB60DFF3E031D1B2D32083402031DF4
:100A4800272D31083302031C2A2D2B2D322D310876
:100A5800B3023208031CB403B40235140130031086
:100A6800B20CB10CFF3E031D332D0130B702031D3C
:100A78003E2D3F2D1A2D3608B2003508B10008006A
:100A8800283083120313940083160313910120085E
:100A9800A4002108A5002208A6002308A700023008
:100AA8000310A40DA50DA60DA70DFF3E031D542D83
:100AB800270883120313B40083160313260883122E
:100AC8000313B30083160313250883120313B2001C
:100AD80083160313240883120313B1000030B800EF
:100AE8007A30B7001230B6000030B5000A128A1109
:100AF8002B220A128A11831203133108FF3E831630
:100B0800031393009401871507160800F901FA01E9
:100B1800750876040319912D922DC92DFB01FB0A46
:100B2800A02D01300310F50DF60DFF3E031D962D87
:100B38000130FF007F08FB07F61FA32DA42D952D7C
:100B480001300310F90DFA0DFF3E031DA52D76089F
:100B58007802031DB12D75087702031CB42DB52D3D
:100B6800BC2D7508F7027608031CF803F8027914FF
:100B780001300310F60CF50CFF3E031DBD2D0130AE
:100B8800FB02031DC82DC92DA42D7A08F60079088B
:100B9800F5000800831203131014861DD42DD52DDB
:100BA800D92D061AD82DD92DDE2D0230FF007F0849
:100BB800DE000A2E0A128A115B240A128A110A120E
:100BC8008A1181260A128A11F52D0A128A114027E4
:100BD8000A128A110A2E0A128A1145270A128A1144
:100BE8000A2E831203134908BC00BD013D08003AD0
:100BF8000319FF2D0A2E3C08003A03190A2E013A60
:100C08000319E92D033A0319EF2D0A2E0800831260
:100C18000313310832040319122E132E422EB50184
:100C2800B50A212E01300310B10DB20DFF3E031D90
:100C3800172E0130FF007F08B507B21F242E252E7E
:100C4800162E32083402031D2B2E31083302031CE2
:100C58002E2E2F2E352E3108B3023208031CB40372
:100C6800B40201300310B20CB10CFF3E031D362E46
:100C78000130B502031D412E422E252E3408B20044
:100C88003308B10008007008710403194C2E4D2E6A
:100C98007C2EF401F40A5B2E01300310F00DF10DE7
:100CA800FF3E031D512E0130FF007F08F407F11F9E
:100CB8005E2E5F2E502E71087302031D652E70087C
:100CC8007202031C682E692E6F2E7008F2027108DA
:100CD800031CF303F30201300310F10CF00CFF3E88
:100CE800031D702E0130F402031D7B2E7C2E5F2E17
:100CF8007308F1007208F0000800831203135A0801
:100D0800053EB1005B080318013E003EB200320800
:100D18004402031D912E310843020318942E952E88
:100D28009D2E5D03031D992E9A2E9D2EC901C90A79
:100D3800B22EDD0144085B02031DA42E43085A02AB
:100D48000318A72EA82EAD2E0230FF007F08C90079
:100D5800B22EDD01DD0AC9010711871208008312CE
:100D68000313A001A1017A1CBA2EBB2EC32E7C0846
:100D780083120313A0070318A10A7D08A1070130F5
:100D88000310FC0DFD0DFF3E031DC42E01300310A2
:100D9800FB0CFA0CFF3E031DCB2E7A087B04031DC7
:100DA800D62ED72EB72E831203132108FB00200856
:100DB800FA00080083120313B2000A303202031843
:100DC800E62EE72EF22E3208503E840083130008E8
:100DD800FF007F08B10031088800F32E8801080061
:100DE8007E088A007F0882000A128A11F4260A12F5
:100DF8008A118000840A04087D0603190034FF0A5A
:100E08000319FE0AF82E3C30831203138F00AF300B
:100E18008E00901010129012831603130C14831274
:100E280003130C100B170800BF3406345B344F341F
:100E380066346D347D340734FF346F343C34003409
:100E480001340134831203131010071187120A1298
:100E58008A1136200A128A110800023083160313F9
:100E68009F004130831203139F0008000B1683165E
:100E7800031301138B170800831203130711871636
:100E8800080083120313871207150800831203133F
:060E98000711871208009B
:02400E003A3F37
:00000001FF
