:020000040000FA
:060000000A128A11122809
:10000800FE00030E83120313AD000408AE000A08B5
:10001800AF007F08B0000A128A11E42A0A128A1176
:10002800152883135330FD000F30FE00E230FF0027
:10003800463084000A128A11EE270A128A11D30167
:10004800D401D501D601D701D801D901DA01DB01E4
:10005800DC0183010A128A11542983120313861DB5
:10006800362837285428061E3A283B2854280530B5
:100078005706031D402841284E28DE01D7015008A5
:10008800FF007F08B20000300A128A114C270A12BA
:100098008A115329D201D20A0130FF007F08D707FD
:1000A800C101C201831203135108BA005008B900F4
:1000B8000A128A1152240A128A118312031386190A
:1000C800662867288F285203031D6B286C288F2801
:1000D8005108803AFF0080307F02031D75284B309D
:1000E80050020318782879288F28053083120313C3
:1000F800D0070318D10A0030D1071A30831203132E
:10010800C000F730BF00BF0B8728C00B87288C289A
:1001180083120313D20183120313061A9428952815
:10012800BD285203031D99289A28BD285108803AF2
:10013800FF0080307F02031DA32824305002031CD7
:10014800A628A728BD28FB3083120313D00703185D
:10015800D10AFF30D1071A3083120313C000F730D9
:10016800BF00BF0BB528C00BB528BA2883120313EC
:10017800D201013083120313C1070318C20A0030E9
:10018800C2074208803AFF0080307F02031DCE2854
:1001980019304102031CD128D22856288312031390
:1001A80005128512C301C401343083120313C00041
:1001B800F130BF00BF0BDE28C00BDE28831203130B
:1001C8008619E728E82810295203031DEC28ED2892
:1001D80010295108803AFF0080307F02031DF6285D
:1001E8004B3050020318F928FA28102905308312D9
:1001F8000313D0070318D10A0030D1071A3083122D
:100208000313C000F730BF00BF0B0829C00B082933
:100218000D2983120313D20183120313061A152919
:1002280016293E295203031D1A291B293E29510864
:10023800803AFF0080307F02031D242924305002B9
:10024800031C272928293E29FB3083120313D007D2
:100258000318D10AFF30D1071A3083120313C000E4
:10026800F730BF00BF0B3629C00B36293B29831254
:100278000313D201013083120313C3070318C40AFE
:100288000030C4074408803AFF0080307F02031D15
:100298004F2919304302031C52295329D828080032
:1002A8000A128A15EF270A128A110A128A15942748
:1002B8000A128A11003083120313C2000130C100F0
:1002C8008630C000A030BF000A128A11FC230A122F
:1002D8008A110730831603138500880183120313DC
:1002E800880183160313871207118312031307115A
:1002F80087128316031386138615061683120313B3
:100308008613831603138612831203138612D901E8
:10031800DD01DD0A0A128A15AC270A128A11831236
:100328000313DE01DE0ADA01D801D301D4013C301F
:10033800D0000030D1000130B2000030B3000A1202
:100348008A1116270A128A11FF007F0883120313E5
:10035800C500063083160313A6001330A500AD3080
:10036800A400A40BB529A50BB529A60BB5298312A2
:1003780003134503031DC129C229D9290030B2003E
:10038800B3000A128A1116270A128A118316031358
:10039800A400A501240883120313D00083160313B5
:1003A800250883120313D100F929B201B20A0130DA
:1003B8000A128A114C270A128A113C30831203133D
:1003C800D0000030D100F9290A128A1128260A1211
:1003D8008A11F9290A128A1585270A128A11F92918
:1003E8000A128A15BE270A128A11831203135E089D
:1003F80083160313A400A5012508003A0319052A4A
:10040800F9292408003A0319E829013A0319EE29C1
:10041800033A0319F429F9290A128A1112288312B6
:100428000313B601B21F192A1A2A212AB109B209DF
:10043800B10A0319B20AB601B60AB41F242A252A3A
:100448002E2AB309B409B30A0319B40A0130FF000C
:100458007F08B606B701B801310832040319352AF6
:10046800362A6D2AB501B50A442A01300310B10DA8
:10047800B20DFF3E031D3A2A0130FF007F08B50781
:10048800B21F472A482A392A01300310B70DB80D80
:10049800FF3E031D492A32083402031D552A31083C
:1004A8003302031C582A592A602A3108B302320839
:1004B800031CB403B402371401300310B20CB10C9E
:1004C800FF3E031D612A0130B502031D6C2A6D2A07
:1004D800482A36080319712A722A772AB709B809EF
:1004E800B70A0319B80A3808B2003708B10008007B
:1004F800003083120313BD000030BC000030BB0085
:100508000030BA00340833043204310403198D2A48
:100518008E2ADB2ABE01BE0A9E2A0130B9000310CA
:10052800B10DB20DB30DB40DB90B932A0130FF0014
:100538007F08BE07B41FA12AA22A912A0130B90058
:100548000310BA0DBB0DBC0DBD0DB90BA42A3408A0
:100558003802031DB92A33083702031DB92A3208A5
:100568003602031DB92A31083502031CBC2ABD2AEC
:10057800CC2A3108B5023208031C320FB602330800
:10058800031C330FB7023408031C340FB8023A14A3
:1005980001300310B40CB30CB20CB10CFF3E031DB8
:1005A800CD2A0130BE02031DDA2ADB2AA22A3D0821
:1005B800B4003C08B3003B08B2003A08B100080098
:1005C8008B1CE72AE82A052B8B10F22A10100C1036
:1005D800DE01DE0A052B1014DE01052B5E08AB00D8
:1005E800AC012C08003A0319FA2A052B2B08003A0B
:1005F8000319EA2A013A0319EF2A033A0319EA2AE6
:10060800052B0C1C082B092B3E2B0C100130FF006E
:100618007F08D80704305806031D132B142B1E2BF4
:100628000130FF007F08D907D8010A128A11A423D4
:100638000A128A110A30831203135906031D252B47
:10064800262B3E2B0A30F5000030F6005408F8003F
:100658005308F7000A128A11E4250A128A1176084B
:1006680083120313D6007508D50020308606D901F9
:10067800D301D4013008FF002F088A002E08840017
:100688002D0E8300FE0E7E0E090083120313B601A1
:10069800B41F4F2B502B572BB309B409B30A0319B6
:1006A800B40AB601B60AB21F5A2B5B2B602BB109EC
:1006B800B209B10A0319B20A310832040319652BC9
:1006C800662B952BB501B50A742B01300310B10DBB
:1006D800B20DFF3E031D6A2B0130FF007F08B507EE
:1006E800B21F772B782B692B32083402031D7E2B1F
:1006F80031083302031C812B822B882B3108B3026B
:100708003208031CB403B40201300310B20CB10C5C
:10071800FF3E031D892B0130B502031D942B952B39
:10072800782B36080319992B9A2B9F2BB309B409F8
:10073800B30A0319B40A3408B2003308B100080038
:1007480002300A128A1150250A128A117108FB0018
:100758007008FA000A30FC000030FD000A128A1105
:100768007B270A128A117A0883120313A3007B08D5
:10077800A4000310A40CA30C2308A7002408A800B5
:100788002808A1002708A0005B30FF007F08A2000E
:100798000A128A11FC240A128A11831203135B08B5
:1007A800FF007F08A9005C08FF007F08AA0029084D
:1007B800A300A4012308FA002408FB000A30FC0067
:1007C8000030FD000A128A117B270A128A1183124F
:1007D80003132A087A07A5000030031801307B07A5
:1007E800A6002508D3070318D40A2608D40708004A
:1007F8002830831203139400831603139101831284
:1008080003133F0883160313A00083120313400841
:1008180083160313A10083120313410883160313DD
:10082800A20083120313420883160313A3000230A5
:100838000310A00DA10DA20DA30DFF3E031D1C2C3E
:10084800230883120313B4008316031322088312A8
:100858000313B30083160313210883120313B20092
:1008680083160313200883120313B1000030B80065
:100878007A30B7001230B6000030B5000A128A117B
:100888007C220A128A11831203133108FF3E831651
:100898000313930094018715071608000A30831282
:1008A8000313B1000030B2003A08B4003908B300AD
:1008B8000A128A1149230A128A1183120313310872
:1008C800FF007F08BD000A30B1000030B2003A08CE
:1008D800B4003908B3000A128A1113220A128A11C5
:1008E800831203133108FF007F08BE0085163D08F8
:1008F8000A128A11D4270A128A111A308312031392
:10090800BC00F730BB00BB0B872CBC0B872C8C2C96
:100918008312031385123E080A128A11D4270A1279
:100928008A118312031305161A3083120313BC00AD
:10093800F730BB00BB0B9E2CBC0B9E2CA32C831248
:100948000313051208000A3083120313B1000030A4
:10095800B2003908B4003808B3000A128A116926AF
:100968000A128A11831203133108FF007F08BC00A2
:100978000A30B1000030B2003908B4003808B300BA
:100988000A128A119E250A128A118312031331084A
:10099800FF007F08BD0085163C080A128A11D4277B
:1009A8000A128A111A3083120313BB00F730BA00F7
:1009B800BA0BDC2CBB0BDC2CE12C83120313851245
:1009C8003D080A128A11D4270A128A1183120313C6
:1009D80005161A3083120313BB00F730BA00BA0B9E
:1009E800F32CBB0BF32CF82C83120313051208000D
:1009F8006430F5000030F600831203132108F30079
:100A08002008F200E830F0000330F1000A128A11E1
:100A1800A5260A128A117108F8007008F7000A1250
:100A28008A11E4250A128A117508FF00831203133C
:100A3800220884007F08831380000A30F500003004
:100A4800F6002108F3002008F2006430F0000030BE
:100A5800F1000A128A11A5260A128A117108F800F3
:100A68007008F7000A128A11E4250A128A1175081B
:100A7800FF0083120313220A84007F088313800077
:100A8800220A8400000803194A2D4B2D4F2D220AF3
:100A98008400013080020800F900612D01308312C2
:100AA80003139F00742D0930831203139F00742DC4
:100AB8001130831203139F00742D7908F200F3019B
:100AC8007308003A0319692D742D7208003A031946
:100AD800522D013A0319572D033A03195C2D742D31
:100AE800831203131F151F197A2D7B2D772D83165B
:100AF80003131E08F20006300310F20CFF3E031D1C
:100B0800802D7208F300F401831203131E08F50008
:100B1800F6010310F50DF60D0310F50DF60D73082B
:100B28007504F70074087604F8007708F000780870
:100B3800F100080083120313B501B601310832042D
:100B48000319A72DA82DDF2DB701B70AB62D01303F
:100B58000310B10DB20DFF3E031DAC2D0130FF0097
:100B68007F08B707B21FB92DBA2DAB2D013003107E
:100B7800B50DB60DFF3E031DBB2D32083402031D13
:100B8800C72D31083302031CCA2DCB2DD22D3108B5
:100B9800B3023208031CB403B40235140130031045
:100BA800B20CB10CFF3E031DD32D0130B702031D5B
:100BB800DE2DDF2DBA2D3608B2003508B100080049
:100BC800F901FA01750876040319EB2DEC2D232E93
:100BD800FB01FB0AFA2D01300310F50DF60DFF3E5F
:100BE800031DF02D0130FF007F08FB07F61FFD2DC8
:100BF800FE2DEF2D01300310F90DFA0DFF3E031DF8
:100C0800FF2D76087802031D0B2E75087702031C4A
:100C18000E2E0F2E162E7508F7027608031CF80301
:100C2800F802791401300310F60CF50CFF3E031D91
:100C3800172E0130FB02031D222E232EFE2D7A08CB
:100C4800F6007908F5000800831203131014861DB6
:100C58002E2E2F2E332E061A322E332E382E0230F9
:100C6800FF007F08DE00682E5608B9005508B80056
:100C78000A128A11A7240A128A110A128A11DF2677
:100C88000A128A11532E0A128A158F270A128A11FC
:100C9800682E0A128A158A270A128A11682E831268
:100CA80003135A08BE00BF013F08003A03195D2E1E
:100CB800682E3E08003A0319682E013A0319472E98
:100CC800033A03194D2E682E0800831203133108C6
:100CD80032040319702E712EA02EB501B50A7F2E8D
:100CE80001300310B10DB20DFF3E031D752E01300A
:100CF800FF007F08B507B21F822E832E742E32089C
:100D08003402031D892E31083302031C8C2E8D2ECC
:100D1800932E3108B3023208031CB403B402013025
:100D28000310B20CB10CFF3E031D942E0130B50226
:100D3800031D9F2EA02E832E3408B2003308B10065
:100D48000800700871040319AA2EAB2EDA2EF401DC
:100D5800F40AB92E01300310F00DF10DFF3E031D0A
:100D6800AF2E0130FF007F08F407F11FBC2EBD2E07
:100D7800AE2E71087302031DC32E70087202031C85
:100D8800C62EC72ECD2E7008F2027108031CF3037D
:100D9800F30201300310F10CF00CFF3E031DCE2EC0
:100DA8000130F402031DD92EDA2EBD2E7308F1008E
:100DB8007208F0000800831203135008053EB100C2
:100DC80051080318013E003EB20032085602031DC6
:100DD800EF2E310855020318F22EF32EFB2E5D0379
:100DE800031DF72EF82EFB2EDA01DA0A152FDD0186
:100DF80056085102031D022F550850020318052FEB
:100E0800062F102F5D08031D0A2F0B2F102F0230FD
:100E1800FF007F08DA00152FDD01DD0ADA0107116E
:100E2800871208000A128A159A270A128A11A03016
:100E38000A128A11BD270A128A1183120313320873
:100E48000A128A11BD270A128A110A128A159A27CC
:100E58000A128A11A1300A128A11BD270A128A11B0
:100E68000A128A11A6270A128A11FF007F08831224
:100E78000313B4000A128A15C9270A128A110A1222
:100E88008A15A3270A128A1183120313340808004B
:100E980083120313B3000A128A159A270A128A11B9
:100EA8005A2F0A128A15B5270A128A11A0300A1277
:100EB8008A11BD270A128A11003A031D642F652F73
:100EC800552F8312031333080A128A11BD270A12F9
:100ED8008A118312031332080A128A11BD270A12D3
:100EE8008A110A128A15A3270A128A110800831286
:100EF8000313A001A1017A1C822F832F8B2F7C085A
:100F080083120313A0070318A10A7D08A107013063
:100F18000310FC0DFD0DFF3E031D8C2F0130031047
:100F2800FB0CFA0CFF3E031D932F7A087B04031D6C
:100F38009E2F9F2F7F2F831203132108FB00200869
:100F4800FA0008000A128A15D5270A128A11831690
:100F58000313911583128C1DB22FB32FAE2F8C1152
:100F68000A128A15D5270A128A1183120313130845
:100F7800080083120313B1000A128A15D5270A1232
:100F88008A1183120313310893008C1DCC2FCD2FA7
:100F9800C92F8C11003083160313111B0130080070
:100FA80083120313B2000A3032020318DC2FDD2F3C
:100FB800E82F3208463E840083130008FF007F08AC
:100FC800B10031088800E92F880108007E088A00EE
:100FD8007F0882000A128A11EA270A128A11800001
:100FE800840A04087D0603190034FF0A0319FE0A5F
:020FF800EE2FDA
:101F0A00831203130711871208008312031387121F
:101F1A0007150800831203130711871608000B160A
:101F2A008316031301138B1708000A128A15D52783
:101F3A000A128A1583160313111408000A128A1545
:101F4A00D5270A128A1583160313111508000230C1
:101F5A00831603139F004130831203139F00080066
:101F6A000A128A15D5270A128A15831603139114A1
:101F7A000800831203131010071187120A128A111C
:101F8A0031200A128A1508008316031391160A12C1
:101F9A008A15D5270A128A15831603131116080003
:101FAA00831603131419DA2FDB2FD52F11081F39C3
:101FBA00031DE02FE12FD52F0800BF3406345B3410
:101FCA004F3466346D347D340734FF346F343C3417
:101FDA00003401343C30831203138F00AF308E007B
:101FEA00901010129012831603130C148312031309
:061FFA000C100B1708009B
:02400E003A3F37
:00000001FF
