:020000040000FA
:060000000A128A11122809
:10000800FE00030E83120313AD000408AE000A08B5
:10001800AF007F08B0000A128A11592A0A128A1101
:10002800152883135330FD000730FE00F230FF001F
:10003800463084000A128A15DB270A128A11D30176
:10004800D401D501D601D701D801D901DA01DB01E4
:10005800DC0183010A128A112A2983120313861DDF
:10006800362837285428061E3A283B2854280530B5
:100078005706031D402841284E28DE01D7015008A5
:10008800FF007F08B20000300A128A116A270A129C
:100098008A112929D201D20A0130FF007F08D70727
:1000A800C101C201831203135108BA005008B900F4
:1000B8000A128A11A7240A128A11831203138619B5
:1000C8006628672882285203031D6B286C2882281B
:1000D8005108803AFF0080307F02031D75284B309D
:1000E80050020318782879288228053083120313D0
:1000F800D0070318D10A0030D107D20183120313A5
:10010800061A87288828A3285203031D8C288D28BF
:10011800A3285108803AFF0080307F02031D9628EB
:1001280024305002031C99289A28A328FB308312F4
:100138000313D0070318D10AFF30D107D2010130C9
:1001480083120313C1070318C20A0030C20742080A
:10015800803AFF0080307F02031DB428143041022A
:10016800031CB728B82856288312031305128512D2
:10017800C301C4010D3083120313C000FB30BF005C
:10018800BF0BC428C00BC428831203138619CD28BB
:10019800CE28E9285203031DD228D328E92851087C
:1001A800803AFF0080307F02031DDC284B3050026C
:1001B8000318DF28E028E928053083120313D00745
:1001C8000318D10A0030D107D2010D30831203136E
:1001D800C000FB30BF00BF0BEF28C00BEF28831215
:1001E8000313061AF828F92814295203031DFD28B9
:1001F800FE2814295108803AFF0080307F02031D31
:10020800072924305002031C0A290B291429FB3022
:1002180083120313D0070318D10AFF30D107D20184
:10022800013083120313C3070318C40A0030C4073C
:100238004408803AFF0080307F02031D25292830BA
:100248004302031C28292929BE2808000A128A15F6
:10025800C6270A128A110A128A1578270A128A11E1
:10026800003083120313C2000130C1008630C00081
:10027800A030BF000A128A1151240A128A110730CD
:1002880083160313850088018312031388018316DC
:1002980003138712071183120313071187121930EA
:1002A800831603138600831203138601D901DD0127
:1002B800DD0A0A128A1590270A128A11831203137B
:1002C800DE01DE0ADA01D801D301D4013C30D000C6
:1002D8000030D1000130B2000030B3000A128A1198
:1002E80034270A128A11FF007F0883120313C500FE
:1002F800063083160313A6001330A500AD30A40002
:10030800A40B8429A50B8429A60B84298312031323
:100318004503031D90299129A8290030B200B30094
:100328000A128A1134270A128A1183160313A400A9
:10033800A501240883120313D0008316031325088C
:1003480083120313D100C829B201B20A01300A127C
:100358008A116A270A128A113C3083120313D000CB
:100368000030D100C8290A128A117D260A128A1182
:10037800C8290A128A1569270A128A11C8290A1275
:100388008A15A2270A128A11831203135E0883169C
:100398000313A400A5012508003A0319D429C82984
:1003A8002408003A0319B729013A0319BD29033A69
:1003B8000319C329C8290A128A11122883120313A0
:1003C8005008053EB10051080318013E003EB20036
:1003D80056083202031DF229550831020318F5297F
:1003E800F629F929DA01DA0A0F2A5008FB3EB1008A
:1003F80051080318013EFF3EB20032085602031DA1
:10040800072A3108550203180A2A0B2A0F2A023034
:10041800FF007F08DA005A03031D132A142A1E2A34
:1004280051085602031D1A2A50085502031C1D2A9A
:100438001E2A2E2A02305A06031D232A242A312A6C
:1004480056085102031D2A2A5508500203182D2A5E
:100458002E2A312ADA01071187125008013EB1000D
:1004680051080318013E003EB20032085602031D2F
:100478003F2A310855020318422A432A582A5008AD
:10048800FF3EB10051080318013EFF3EB200560876
:100498003202031D512A550831020318542A552ADD
:1004A800582ADA010711871208008B1C5C2A5D2A7A
:1004B8007A2A8B10672A10100C10DE01DE0A7A2ABD
:1004C8001014DE017A2A5E08AB00AC012C08003A51
:1004D80003196F2A7A2A2B08003A03195F2A013A6E
:1004E8000319642A033A03195F2A7A2A0C1C7D2A05
:1004F8007E2AC22A0C100130FF007F08D80704307A
:100508005806031D882A892A932A0130FF007F088C
:10051800D907D8010A128A11F9230A128A110A3056
:10052800831203135906031D9A2A9B2AC22A0A30EA
:10053800F5000030F6005408F8005308F7000A12D6
:100548008A1139260A128A11760883120313D600F3
:100558007508D5005A03031DB22AB32AB52A861690
:10056800BF2A02305A06031DBA2ABB2ABE2A2030E7
:100578008606BF2A8612D901D301D4013008FF00AC
:100588002F088A002E0884002D0E8300FE0E7E0E92
:10059800090083120313B601B21FD32AD42ADB2A17
:1005A800B109B209B10A0319B20AB601B60AB41FF1
:1005B800DE2ADF2AE82AB309B409B30A0319B40A00
:1005C8000130FF007F08B606B701B80131083204D0
:1005D8000319EF2AF02A272BB501B50AFE2A0130A4
:1005E8000310B10DB20DFF3E031DF42A0130FF00C8
:1005F8007F08B507B21F012B022BF32A0130031025
:10060800B70DB80DFF3E031D032B32083402031D3E
:100618000F2B31083302031C122B132B1A2B310812
:10062800B3023208031CB403B402371401300310B8
:10063800B20CB10CFF3E031D1B2B0130B502031D8C
:10064800262B272B022B360803192B2B2C2B312B6F
:10065800B709B809B70A0319B80A3808B200370841
:10066800B1000800003083120313BD000030BC0045
:100678000030BB000030BA003408330432043104BF
:100688000319472B482B952BBE01BE0A582B013066
:10069800B9000310B10DB20DB30DB40DB90B4D2B4C
:1006A8000130FF007F08BE07B41F5B2B5C2B4B2B70
:1006B8000130B9000310BA0DBB0DBC0DBD0DB90B4F
:1006C8005E2B34083802031D732B33083702031DD1
:1006D800732B32083602031D732B31083502031CB5
:1006E800762B772B862B3108B5023208031C320F84
:1006F800B6023308031C330FB7023408031C340F47
:10070800B8023A1401300310B40CB30CB20CB10C9B
:10071800FF3E031D872B0130BE02031D942B952B32
:100728005C2B3D08B4003C08B3003B08B2003A0813
:10073800B100080083120313B601B41FA42BA52B24
:10074800AC2BB309B409B30A0319B40AB601B60A43
:10075800B21FAF2BB02BB52BB109B209B10A0319DF
:10076800B20A310832040319BA2BBB2BEA2BB501A4
:10077800B50AC92B01300310B10DB20DFF3E031DA0
:10078800BF2B0130FF007F08B507B21FCC2BCD2B44
:10079800BE2B32083402031DD32B31083302031C4D
:1007A800D62BD72BDD2B3108B3023208031CB40338
:1007B800B40201300310B20CB10CFF3E031DDE2B56
:1007C8000130B502031DE92BEA2BCD2B360803199E
:1007D800EE2BEF2BF42BB309B409B30A0319B40AAF
:1007E8003408B2003308B100080002300A128A1136
:1007F800A5250A128A117108FB007008FA000A3050
:10080800FC000030FD000A128A1199270A128A1189
:100818007A0883120313A3007B08A4000310A40C16
:10082800A30C2308A7002408A8002808A10027086B
:10083800A0005B30FF007F08A2000A128A11512530
:100848000A128A11831203135B08FF007F08A900AC
:100858005C08FF007F08AA002908A300A401230858
:10086800FA002408FB000A30FC000030FD000A12E0
:100878008A1199270A128A11831203132A087A0700
:10088800A5000030031801307B07A6002508D30710
:100898000318D40A2608D407080028308312031343
:1008A8009400831603139101831203133F088316E0
:1008B8000313A00083120313400883160313A10037
:1008C80083120313410883160313A2008312031330
:1008D800420883160313A30002300310A00DA10DD4
:1008E800A20DA30DFF3E031D712C230883120313D1
:1008F800B40083160313220883120313B30083166C
:100908000313210883120313B2008316031320086C
:1009180083120313B1000030B8007A30B7001230E8
:10092800B6000030B5000A128A1136230A128A115D
:10093800831203133108FF3E8316031393009401B7
:100948008715071608000A3083120313B100003018
:10095800B2003A08B4003908B3000A128A119E237B
:100968000A128A11831203133108FF007F08BD00A1
:100978000A30B1000030B2003A08B4003908B300B8
:100988000A128A11CD220A128A118312031331081E
:10099800FF007F08BE0085163D080A128A15EA275F
:1009A8000A128A111A3083120313BC00F730BB00F5
:1009B800BB0BDC2CBC0BDC2CE12C83120313851243
:1009C8003E080A128A15EA270A128A1183120313AB
:1009D80005161A3083120313BC00F730BB00BB0B9B
:1009E800F32CBC0BF32CF82C83120313051208000C
:1009F8000A3083120313B1000030B2003908B40082
:100A08003808B3000A128A11BE260A128A11831204
:100A180003133108FF007F08BC000A30B100003022
:100A2800B2003908B4003808B3000A128A11F32555
:100A38000A128A11831203133108FF007F08BD00D0
:100A480085163C080A128A15EA270A128A111A30F2
:100A580083120313BB00F730BA00BA0B312DBB0B5E
:100A6800312D362D8312031385123D080A128A157B
:100A7800EA270A128A118312031305161A30831201
:100A88000313BB00F730BA00BA0B482DBB0B482D37
:100A98004D2D83120313051208006430F500003051
:100AA800F600831203132108F3002008F200E8304F
:100AB800F0000330F1000A128A11FA260A128A118C
:100AC8007108F8007008F7000A128A1139260A120C
:100AD8008A117508FF0083120313220884007F0817
:100AE800831380000A30F5000030F6002108F30077
:100AF8002008F2006430F0000030F1000A128A1178
:100B0800FA260A128A117108F8007008F7000A120A
:100B18008A1139260A128A117508FF0083120313F5
:100B2800220A84007F0883138000220A84000008B8
:100B380003199F2DA02DA42D220A840001308002C4
:100B48000800F900B62D0130831203139F00C92D48
:100B58000930831203139F00C92D11308312031328
:100B68009F00C92D7908F200F3017308003A0319B0
:100B7800BE2DC92D7208003A0319A72D013A031991
:100B8800AC2D033A0319B12DC92D831203131F1578
:100B98001F19CF2DD02DCC2D831603131E08F2005C
:100BA80006300310F20CFF3E031DD52D7208F3002A
:100BB800F401831203131E08F500F6010310F50D66
:100BC800F60D0310F50DF60D73087504F70074089B
:100BD8007604F8007708F0007808F100080083121E
:100BE8000313B501B601310832040319FC2DFD2D9C
:100BF800342EB701B70A0B2E01300310B10DB20D18
:100C0800FF3E031D012E0130FF007F08B707B21F0A
:100C18000E2E0F2E002E01300310B50DB60DFF3E1F
:100C2800031D102E32083402031D1C2E3108330216
:100C3800031C1F2E202E272E3108B3023208031C56
:100C4800B403B402351401300310B20CB10CFF3EEA
:100C5800031D282E0130B702031D332E342E0F2E0C
:100C68003608B2003508B1000800F901FA01750824
:100C780076040319402E412E782EFB01FB0A4F2ED5
:100C880001300310F50DF60DFF3E031D452E013012
:100C9800FF007F08FB07F61F522E532E442E01300B
:100CA8000310F90DFA0DFF3E031D542E7608780245
:100CB800031D602E75087702031C632E642E6B2EAD
:100CC8007508F7027608031CF803F8027914013056
:100CD8000310F60CF50CFF3E031D6C2E0130FB02D1
:100CE800031D772E782E532E7A08F6007908F50022
:100CF8000800831203131014861D832E842E882E59
:100D0800061A872E882E8D2E0230FF007F08DE00FF
:100D1800BD2E5608B9005508B8000A128A11FC24DD
:100D28000A128A110A128A11E2210A128A11A82EBD
:100D38000A128A156E270A128A11BD2E0A128A15FE
:100D480073270A128A11BD2E831203135A08BE0094
:100D5800BF013F08003A0319B22EBD2E3E08003AE3
:100D68000319BD2E013A03199C2E033A0319A22E2A
:100D7800BD2E080083120313310832040319C52E4F
:100D8800C62EF52EB501B50AD42E01300310B10DCB
:100D9800B20DFF3E031DCA2E0130FF007F08B507C4
:100DA800B21FD72ED82EC92E32083402031DDE2ECC
:100DB80031083302031CE12EE22EE82E3108B3027B
:100DC8003208031CB403B40201300310B20CB10C96
:100DD800FF3E031DE92E0130B502031DF42EF52E4A
:100DE800D82E3408B2003308B10008007008710426
:100DF8000319FF2E002F2F2FF401F40A0E2F0130B4
:100E08000310F00DF10DFF3E031D042F0130FF000C
:100E18007F08F407F11F112F122F032F7108730297
:100E2800031D182F70087202031C1B2F1C2F222F62
:100E38007008F2027108031CF303F3020130031077
:100E4800F10CF00CFF3E031D232F0130F402031DAB
:100E58002E2F2F2F122F7308F1007208F0000800B0
:100E68000A128A157E270A128A11A0300A128A11DC
:100E7800DB270A128A118312031332080A128A1115
:100E8800DB270A128A110A128A157E270A128A118A
:100E9800A1300A128A11DB270A128A110A128A1152
:100EA800C4270A128A11FF007F0883120313B400B3
:100EB8000A128A15AD270A128A110A128A1587277B
:100EC8000A128A11831203133408080083120313C9
:100ED800B3000A128A157E270A128A11782F0A127D
:100EE8008A1599270A128A11A0300A128A11DB275B
:100EF8000A128A11003A031D822F832F732F83123F
:100F0800031333080A128A11DB270A128A11831283
:100F1800031332080A128A11DB270A128A110A12ED
:100F28008A1587270A128A11080083120313A00161
:100F3800A1017A1CA02FA12FA92F7C0883120313CB
:100F4800A0070318A10A7D08A10701300310FC0DB2
:100F5800FD0DFF3E031DAA2F01300310FB0CFA0CF8
:100F6800FF3E031DB12F7A087B04031DBC2FBD2F44
:100F78009D2F831203132108FB002008FA000800A4
:100F88000A128A15B9270A128A11831603139115B2
:100F980083128C1DD02FD12FCC2F8C110A128A15B9
:100FA800B9270A128A11831203131308080083123F
:100FB8000313B1000A128A15B9270A128A1183127B
:100FC8000313310893008C1DEA2FEB2FE72F8C11A8
:100FD800003083160313111B01300800BF34063498
:100FE8005B344F3466346D347D340734FF346F34EA
:060FF8003C34003401341A
:101ED2008312031307118712080083120313871258
:101EE20007150800831203130711871608000B1643
:101EF2008316031301138B1708000A128A15B927D8
:101F02000A128A1583160313111408000A128A157D
:101F1200B9270A128A158316031311150800023015
:101F2200831603139F004130831203139F0008009E
:101F32000A128A15B9270A128A15831603139114F5
:101F42000800831203131010071187120A128A1154
:101F520031200A128A1508008316031391160A12F9
:101F62008A15B9270A128A15831603131116080057
:101F7200831603131419BE2FBF2FB92F11081F394F
:101F8200031DC42FC52FB92F08003C308312031341
:101F92008F00AF308E009010101290128316031330
:101FA2000C14831203130C100B1708007E088A000E
:101FB2007F0882000A128A15D7270A128A15800022
:101FC200840A04087D0603190034FF0A0319FE0A75
:101FD200DB2F83120313B2000A3032020318F22FEE
:101FE200F32FFE2F3208463E840083130008FF00C1
:0E1FF2007F08B10031088800FF2F8801080029
:02400E003A3F37
:00000001FF
