:020000040000FA
:060000000A128A11122809
:10000800FE00030E83120313AD000408AE000A08B5
:10001800AF007F08B0000A128A11D72A0A128A1183
:10002800152883135E30FD000F30FE00E930FF0015
:10003800533084000A128A11CD270A128A114230DD
:10004800840053300A128A15B2270A128A118301D2
:100058000A128A11502983120313861D3428352861
:100068005228061E38283928522805304806031D0C
:100078003E283F284C28DE01C8014608FF007F08BB
:10008800B20000300A128A112B270A128A114F294E
:10009800DD01DD0A0130FF007F08C807831603135E
:1000A800A001A1010A128A114A240A128A11831294
:1000B800031386196028612889285D03031D6528B4
:1000C800662889284708803AFF0080307F02031D90
:1000D8006F284B3046020318722873288928053088
:1000E80083120313C6070318C70A0030C7071A305C
:1000F80083120313BE00F730BD00BD0B8128BE0B71
:100108008128862883120313DD0183120313061A3C
:100118008E288F28B7285D03031D93289428B728B5
:100128004708803AFF0080307F02031D9D28243055
:100138004602031CA028A128B728FB30831203130A
:10014800C6070318C70AFF30C7071A3083120313FC
:10015800BE00F730BD00BD0BAF28BE0BAF28B428DA
:1001680083120313DD01013083160313A00703185C
:10017800A10A0030A1072108803AFF0080307F02E1
:10018800031DC82819302002031CCB28CC28562868
:10019800831203130512851283160313A201A30108
:1001A800343083120313BE00F130BD00BD0BDA28D2
:1001B800BE0BDA28831203138619E328E4280C29D6
:1001C8005D03031DE828E9280C294708803AFF0049
:1001D80080307F02031DF2284B3046020318F528B1
:1001E800F6280C29053083120313C6070318C70A1B
:1001F8000030C7071A3083120313BE00F730BD0062
:10020800BD0B0429BE0B0429092983120313DD0140
:1002180083120313061A112912293A295D03031DB3
:10022800162917293A294708803AFF0080307F02AB
:10023800031D202924304602031C232924293A2996
:10024800FB3083120313C6070318C70AFF30C7071A
:100258001A3083120313BE00F730BD00BD0B3229DC
:10026800BE0B3229372983120313DD0101308316AF
:100278000313A2070318A30A0030A3072308803A30
:10028800FF0080307F02031D4B2919302202031C16
:100298004E294F29D42808000A128A11DC270A128D
:1002A8008A110A128A11FA270A128A110030831653
:1002B8000313A3000130A2008630A100A030A000E3
:1002C8000A128A1188250A128A1107308316031325
:1002D800850088018312031388018316031387128C
:1002E800071183120313071187128316031386134A
:1002F80086150616831203138613831603138612B4
:10030800831203138612CB010A128A15CC270A120C
:100318008A1183120313DE01DE0ACC01C901CA0166
:10032800C201C3010130B2000030B3000A128A11C1
:10033800C5260A128A11FF007F0883160313A80036
:10034800063083120313C1001330C000AD30BF0064
:10035800BF0BAC29C00BAC29C10BAC298316031306
:100368002803031DB829B929CC29003083120313A7
:10037800B200B3000A128A11C5260A128A11831222
:100388000313BF00C0013F08C6004008C700EE299C
:1003980083120313B201B20A01300A128A112B2701
:1003A8000A128A113C3083120313C6000030C700BA
:1003B800EE290A128A1112260A128A11EE290A1245
:1003C8008A15A3270A128A11EE290A128A15DE272E
:1003D8000A128A11831203135E08BF00C001400885
:1003E800003A0319F829EE293F08003A0319DD29D4
:1003F800013A0319E329033A0319E929EE290A12F4
:100408008A11122883120313B601B21F0C2A0D2A6F
:10041800142AB109B209B10A0319B20AB601B60A17
:10042800B41F172A182A212AB309B409B30A0319D1
:10043800B40A0130FF007F08B606B701B8013108D9
:1004480032040319282A292A602AB501B50A372A4D
:1004580001300310B10DB20DFF3E031D2D2A0130EE
:10046800FF007F08B507B21F3A2A3B2A2C2A013021
:100478000310B70DB80DFF3E031D3C2A32083402A5
:10048800031D482A31083302031C4B2A4C2A532ADD
:100498003108B3023208031CB403B4023714013024
:1004A8000310B20CB10CFF3E031D542A0130B502F3
:1004B800031D5F2A602A3B2A36080319642A652A25
:1004C8006A2AB709B809B70A0319B80A3808B2007E
:1004D8003708B1000800003083120313BD00003054
:1004E800BC000030BB000030BA00340833043204CA
:1004F80031040319802A812ACE2ABE01BE0A912A14
:100508000130B9000310B10DB20DB30DB40DB90B24
:10051800862A0130FF007F08BE07B41F942A952A57
:10052800842A0130B9000310BA0DBB0DBC0DBD0DF6
:10053800B90B972A34083802031DAC2A330837024E
:10054800031DAC2A32083602031DAC2A31083502D5
:10055800031CAF2AB02ABF2A3108B5023208031C8F
:10056800320FB6023308031C330FB7023408031CDA
:10057800340FB8023A1401300310B40CB30CB20CA7
:10058800B10CFF3E031DC02A0130BE02031DCD2A57
:10059800CE2A952A3D08B4003C08B3003B08B200B7
:1005A8003A08B10008008B1CDA2ADB2AF82A8B10DB
:1005B800E52A10100C10DE01DE0AF82A1014DE01FC
:1005C800F82A5E08AB00AC012C08003A0319ED2AA2
:1005D800F82A2B08003A0319DD2A013A0319E22AFE
:1005E800033A0319DD2AF82A0C1CFB2AFC2A342BAF
:1005F8000C100130FF007F08CA07C90104304A0601
:10060800031D072B082B142BC901C90A0130FF0051
:100618007F08CB07CA010A128A119A230A128A1183
:100628000A30831203134B06031D1B2B1C2B342B80
:100638000A30F5000030F6004308F8004208F700D9
:100648000A128A11CE250A128A1176088312031318
:10065800C5007508C40020308606CB01C201C3015D
:100668003008FF002F088A002E0884002D0E830012
:10067800FE0E7E0E090083120313B601B41F452B2C
:10068800462B4D2BB309B409B30A0319B40AB601B2
:10069800B60AB21F502B512B562BB109B209B10A19
:1006A8000319B20A3108320403195B2B5C2B8B2B1C
:1006B800B501B50A6A2B01300310B10DB20DFF3E2A
:1006C800031D602B0130FF007F08B507B21F6D2B9B
:1006D8006E2B5F2B32083402031D742B3108330252
:1006E800031C772B782B7E2B3108B3023208031CAE
:1006F800B403B40201300310B20CB10CFF3E031D69
:100708007F2B0130B502031D8A2B8B2B6E2B3608ED
:1007180003198F2B902B952BB309B409B30A03192E
:10072800B40A3408B2003308B100080002300A12D3
:100738008A11F4240A128A117108FB007008FA0061
:100748000A30FC000030FD000A128A115A270A12EA
:100758008A117A0883120313A3007B08A4000310EC
:10076800A40CA30C2308A7002408A8002808A100AB
:100778002708A0004D30FF007F08A2000A128A1146
:10078800F2230A128A11831203134F08FF007F080D
:10079800A9005008FF007F08AA002908A300A401A7
:1007A8002308FA002408FB000A30FC000030FD0092
:1007B8000A128A115A270A128A11831203132A0865
:1007C8007A07A5000030031801307B07A60025082A
:1007D800C2070318C30A2608C30708006430F500D7
:1007E8000030F600831203132108F3002008F200FA
:1007F800E830F0000330F1000A128A118B260A1241
:100808008A117108F8007008F7000A128A11CE25BB
:100818000A128A117508FF00831203132208023E88
:1008280084007F08831380000A30F5000030F6004A
:100838002108F3002008F2006430F0000030F100D5
:100848000A128A118B260A128A117108F800700898
:10085800F7000A128A11CE250A128A117508FF00BC
:10086800831203132208033E84007F088313800049
:100878002208033E840000080319432C442C492C09
:100888002208033E84000130800208000A308312E7
:100898000313B1000030B2004708B4004608B300A3
:1008A8000A128A113F230A128A118312031331088C
:1008B800FF007F08BB000A30B1000030B2004708D3
:1008C800B4004608B3000A128A1106220A128A11D5
:1008D800831203133108FF007F08BC0085163B080C
:1008E8000A128A11B3270A128A111A3083120313C3
:1008F800BA00F730B900B90B7F2CBA0B7F2C842CC7
:100908008312031385123C080A128A11B3270A12AC
:100918008A118312031305161A3083120313BA00BF
:10092800F730B900B90B962CBA0B962C9B2C831276
:100938000313051208000A3083120313B1000030B4
:10094800B2004508B4004408B3000A128A114F26C1
:100958000A128A11831203133108FF007F08BA00B4
:100968000A30B1000030B2004508B4004408B300B2
:100978000A128A1142250A128A11831203133108B6
:10098800FF007F08BB0085163A080A128A11B327B0
:100998000A128A111A3083120313B900F730B8000B
:1009A800B80BD42CB90BD42CD92C83120313851271
:1009B8003B080A128A11B3270A128A1183120313F9
:1009C80005161A3083120313B900F730B800B80BB4
:1009D800EB2CB90BEB2CF02C831203130512080037
:1009E800F900052D0130831203139F00182D0930DB
:1009F800831203139F00182D1130831203139F00D5
:100A0800182D7908F200F3017308003A03190D2D27
:100A1800182D7208003A0319F62C013A0319FB2C19
:100A2800033A0319002D182D831203131F151F19DC
:100A38001E2D1F2D1B2D831603131E08F2000630D2
:100A48000310F20CFF3E031D242D7208F300F4017D
:100A5800831203131E08F500F6010310F50DF60DB9
:100A68000310F50DF60D73087504F7007408760485
:100A7800F8007708F0007808F100080083120313E3
:100A8800B601B7013108320403194B2D4C2D832DC3
:100A9800B501B50A5A2D01300310B10DB20DFF3E54
:100AA800031D502D0130FF007F08B507B21F5D2DD3
:100AB8005E2D4F2D01300310B60DB70DFF3E031DFF
:100AC8005F2D32083402031D6B2D31083302031CDD
:100AD8006E2D6F2D762D3108B3023208031CB40336
:100AE800B402361401300310B20CB10CFF3E031DE2
:100AF800772D0130B502031D822D832D5E2D370819
:100B0800B2003608B100080028308312031394009D
:100B18008316031391012008A4002108A5002208C8
:100B2800A6002308A70002300310A40DA50DA60DEA
:100B3800A70DFF3E031D982D270883120313B40049
:100B480083160313260883120313B30083160313B3
:100B5800250883120313B200831603132408831293
:100B68000313B1000030B8007A30B7001230B60075
:100B78000030B5000A128A116F220A128A118312F4
:100B880003133108FF3E831603139300940187155E
:100B980007160800F901FA01750876040319D52D1E
:100BA800D62D0D2EFB01FB0AE42D01300310F50DA7
:100BB800F60DFF3E031DDA2D0130FF007F08FB070D
:100BC800F61FE72DE82DD92D01300310F90DFA0D88
:100BD800FF3E031DE92D76087802031DF52D7508E3
:100BE8007702031CF82DF92D002E7508F7027608F8
:100BF800031CF803F802791401300310F60CF50C05
:100C0800FF3E031D012E0130FB02031D0C2E0D2E8D
:100C1800E82D7A08F6007908F50008008312031316
:100C28001014861D182E192E1D2E061A1C2E1D2E68
:100C3800222E0230FF007F08DE004E2E0A128A1193
:100C48009F240A128A110A128A11FB260A128A1193
:100C5800392E0A128A15AD270A128A114E2E0A1247
:100C68008A15A8270A128A114E2E831203134C08DC
:100C7800BC00BD013D08003A0319432E4E2E3C0826
:100C8800003A03194E2E013A03192D2E033A03197F
:100C9800332E4E2E08008312031331083204031931
:100CA800562E572E862EB501B50A652E0130031033
:100CB800B10DB20DFF3E031D5B2E0130FF007F0812
:100CC800B507B21F682E692E5A2E32083402031D4A
:100CD8006F2E31083302031C722E732E792E3108C1
:100CE800B3023208031CB403B40201300310B20C7F
:100CF800B10CFF3E031D7A2E0130B502031D852E6F
:100D0800862E692E3408B2003308B1000800700836
:100D180071040319902E912EC02EF401F40A9F2E0F
:100D280001300310F00DF10DFF3E031D952E01302B
:100D3800FF007F08F407F11FA22EA32E942E71083E
:100D48007302031DA92E70087202031CAC2EAD2E6F
:100D5800B32E7008F2027108031CF303F30201308A
:100D68000310F10CF00CFF3E031DB42E0130F40209
:100D7800031DBF2EC02EA32E7308F1007208F000C9
:100D880008000A128A15BA270A128A11A0300A1214
:100D98008A119C270A128A118312031332080A1235
:100DA8008A119C270A128A110A128A15BA270A126E
:100DB8008A11A1300A128A119C270A128A110A1272
:100DC8008A1185270A128A11FF007F0883120313EC
:100DD800B4000A128A15F4270A128A110A128A150F
:100DE800C3270A128A1183120313340808008312D6
:100DF80003134608053EB10047080318013E003EAC
:100E0800B20045083202031D0B2F440831020318B3
:100E18000E2F0F2F122FCC01CC0A2A2F4608FB3E8B
:100E2800B10047080318013EFF3EB20032084502F0
:100E3800031D202F310844020318232F242F292FA4
:100E48000230FF007F08CC002A2FCC010800831253
:100E58000313B3000A128A15BA270A128A11392F06
:100E68000A128A15D5270A128A11A0300A128A1185
:100E78009C270A128A11003A031D432F442F342F4E
:100E88008312031333080A128A119C270A128A1143
:100E98008312031332080A128A119C270A128A1134
:100EA8000A128A15C3270A128A110800831203132B
:100EB800A001A1017A1C612F622F6A2F7C0883127E
:100EC8000313A0070318A10A7D08A1070130031026
:100ED800FC0DFD0DFF3E031D6B2F01300310FB0CB5
:100EE800FA0CFF3E031D722F7A087B04031D7D2F29
:100EF8007E2F5E2F831203132108FB002008FA00BF
:100F080008000A128A11ED270A128A1183160313A0
:100F1800911583128C1D912F922F8D2F8C110A12EF
:100F28008A11ED270A128A11831203131308080085
:100F380083120313B1000A128A11ED270A128A11CB
:100F480083120313310893008C1DAB2FAC2FA82FED
:100F58008C11003083160313111B01300800831213
:100F68000313B2000A3032020318BB2FBC2FC72F5D
:100F78003208533E840083130008FF007F08B10045
:100F880031088800C82F880108007E088A007F0879
:100F980082000A128A11C9270A128A118000840A5B
:100FA80004087D0603190034FF0A0319FE0ACD2F31
:100FB8003C30831203138F00AF308E009010101254
:100FC8009012831603130C14831203130C100B17BF
:100FD8000800831603131419F22FF32FED2F1108AD
:100FE8001F39031DF82FF92FED2F08000B16831654
:080FF800031301138B1708001D
:101F460083120313071187120800831203138716DF
:101F5600071108008312031307158712080064008F
:101F66008001840A0406031900340406B32F0A12FA
:101F76008A11ED270A128A15831603131114080015
:101F86000A128A11ED270A128A15831603131115F0
:101F960008000230831603139F0041308312031397
:101FA6009F0008000A128A11ED270A128A15831665
:101FB60003139114080083120313101007118712DC
:101FC6000A128A112F200A128A150800BF34063415
:101FD6005B344F3466346D347D340734FF346F34EC
:101FE60001348316031391160A128A11ED270A1279
:0A1FF6008A15831603131116080064
:02400E003A3F37
:00000001FF
