:020000040000FA
:060000000A128A11122809
:10000800FE00030E83120313AD000408AE000A08B5
:10001800AF007F08B0000A128A11AD2A0A128A11AD
:10002800152883135E30FD000730FE00F530FF0011
:10003800533084000A128A11C8270A128A114230E2
:10004800840053300A128A15BD270A128A118301C7
:100058000A128A11262983120313861D342835288B
:100068005228061E38283928522805304806031D0C
:100078003E283F284C28DE01C8014608FF007F08BB
:10008800B20000300A128A1126270A128A1125297D
:10009800DD01DD0A0130FF007F08C807831603135E
:1000A800A001A1010A128A1120240A128A118312BE
:1000B80003138619602861287C285D03031D6528C1
:1000C80066287C284708803AFF0080307F02031D9D
:1000D8006F284B3046020318722873287C28053095
:1000E80083120313C6070318C70A0030C707DD01C8
:1000F80083120313061A812882289D285D03031D95
:10010800862887289D284708803AFF0080307F028C
:10011800031D902824304602031C932894289D2808
:10012800FB3083120313C6070318C70AFF30C7073B
:10013800DD01013083160313A0070318A10A00305C
:10014800A1072108803AFF0080307F02031DAE28F6
:1001580014302002031CB128B22856288312031336
:100168000512851283160313A201A3010D30831211
:100178000313BE00FB30BD00BD0BC028BE0BC0285A
:10018800831203138619C928CA28E5285D03031DAD
:10019800CE28CF28E5284708803AFF0080307F0224
:1001A800031DD8284B3046020318DB28DC28E52835
:1001B800053083120313C6070318C70A0030C707A0
:1001C800DD010D3083120313BE00FB30BD00BD0BF3
:1001D800EB28BE0BEB2883120313061AF428F52824
:1001E80010295D03031DF928FA2810294708803AC9
:1001F800FF0080307F02031D032924304602031CC0
:10020800062907291029FB3083120313C607031890
:10021800C70AFF30C707DD01013083160313A207A1
:100228000318A30A0030A3072308803AFF00803090
:100238007F02031D212928302202031C2429252995
:10024800BA2808000A128A11D7270A128A110A1234
:100258008A15B7270A128A11003083160313A300E0
:100268000130A2008630A100A030A0000A128A1135
:10027800B3250A128A1107308316031385008801F3
:10028800831203138801831603138712071183123D
:100298000313071187128316031386138615061690
:1002A8008312031386138316031386128312031310
:1002B8008612CB010A128A15D7270A128A118312CD
:1002C8000313DE01DE0ACC01C901CA01C201C30160
:1002D8000130B2000030B3000A128A11F0260A1267
:1002E8008A11FF007F0883160313A80006308312C3
:1002F8000313C1001330C000AD30BF00BF0B82290B
:10030800C00B8229C10B8229831603132803031DFE
:100318008E298F29A229003083120313B200B3005B
:100328000A128A11F0260A128A1183120313BF00D7
:10033800C0013F08C6004008C700C4298312031340
:10034800B201B20A01300A128A1126270A128A114A
:100358003C3083120313C6000030C700C4290A12B8
:100368008A113D260A128A11C4290A128A15A82759
:100378000A128A11C4290A128A15E9270A128A114F
:10038800831203135E08BF00C0014008003A031936
:10039800CE29C4293F08003A0319B329013A0319A1
:1003A800B929033A0319BF29C4290A128A11122844
:1003B80083120313B601B21FE229E329EA29B1091E
:1003C800B209B10A0319B20AB601B60AB41FED2977
:1003D800EE29F729B309B409B30A0319B40A01309D
:1003E800FF007F08B606B701B801310832040319C7
:1003F800FE29FF29362AB501B50A0D2A0130031056
:10040800B10DB20DFF3E031D032A0130FF007F0826
:10041800B507B21F102A112A022A01300310B70D9E
:10042800B80DFF3E031D122A32083402031D1E2A8E
:1004380031083302031C212A222A292A3108B3024F
:100448003208031CB403B402371401300310B20C91
:10045800B10CFF3E031D2A2A0130B502031D352ABF
:10046800362A112A360803193A2A3B2A402AB7099C
:10047800B809B70A0319B80A3808B2003708B10032
:100488000800003083120313BD000030BC000030A8
:10049800BB000030BA0034083304320431040319B5
:1004A800562A572AA42ABE01BE0A672A0130B90073
:1004B8000310B10DB20DB30DB40DB90B5C2A0130A8
:1004C800FF007F08BE07B41F6A2A6B2A5A2A013028
:1004D800B9000310BA0DBB0DBC0DBD0DB90B6D2ACB
:1004E80034083802031D822A33083702031D822A82
:1004F80032083602031D822A31083502031C852A78
:10050800862A952A3108B5023208031C320FB60232
:100518003308031C330FB7023408031C340FB80226
:100528003A1401300310B40CB30CB20CB10CFF3EFA
:10053800031D962A0130BE02031DA32AA42A6B2A92
:100548003D08B4003C08B3003B08B2003A08B100CB
:1005580008008B1CB02AB12ACE2A8B10BB2A101097
:100568000C10DE01DE0ACE2A1014DE01CE2A5E0847
:10057800AB00AC012C08003A0319C32ACE2A2B0879
:10058800003A0319B32A013A0319B82A033A03199E
:10059800B32ACE2A0C1CD12AD22A0A2B0C100130DD
:1005A800FF007F08CA07C90104304A06031DDD2A77
:1005B800DE2AEA2AC901C90A0130FF007F08CB07F1
:1005C800CA010A128A1170230A128A110A30831288
:1005D80003134B06031DF12AF22A0A2B0A30F500F1
:1005E8000030F6004308F8004208F7000A128A11A2
:1005F800F9250A128A11760883120313C5007508B3
:10060800C40020308606CB01C201C3013008FF00B8
:100618002F088A002E0884002D0E8300FE0E7E0E01
:10062800090083120313B601B41F1B2B1C2B232BA9
:10063800B309B409B30A0319B40AB601B60AB21F5A
:10064800262B272B2C2BB109B209B10A0319B20AA0
:10065800310832040319312B322B612BB501B50A4D
:10066800402B01300310B10DB20DFF3E031D362B98
:100678000130FF007F08B507B21F432B442B352BF1
:1006880032083402031D4A2B31083302031C4D2B58
:100698004E2B542B3108B3023208031CB403B402A6
:1006A80001300310B20CB10CFF3E031D552B013075
:1006B800B502031D602B612B442B36080319652BEB
:1006C800662B6B2BB309B409B30A0319B40A3408AF
:1006D800B2003308B100080002300A128A111F253F
:1006E8000A128A117108FB007008FA000A30FC002F
:1006F8000030FD000A128A1155270A128A117A0859
:1007080083120313A3007B08A4000310A40CA30CFA
:100718002308A7002408A8002808A1002708A0008B
:100728004D30FF007F08A2000A128A11C8230A125E
:100738008A11831203134F08FF007F08A90050088D
:10074800FF007F08AA002908A300A4012308FA00D3
:100758002408FB000A30FC000030FD000A128A1150
:1007680055270A128A11831203132A087A07A5004B
:100778000030031801307B07A6002508C2070318BC
:10078800C30A2608C30708006430F5000030F600E5
:10079800831203132108F3002008F200E830F00068
:1007A8000330F1000A128A11B6260A128A1171085A
:1007B800F8007008F7000A128A11F9250A128A113E
:1007C8007508FF00831203132208023E84007F0885
:1007D800831380000A30F5000030F6002108F3008A
:1007E8002008F2006430F0000030F1000A128A118B
:1007F800B6260A128A117108F8007008F7000A1262
:100808008A11F9250A128A117508FF008312031349
:100818002208033E84007F08831380002208033ED9
:10082800840000080319192C1A2C1F2C2208033ED7
:1008380084000130800208000A3083120313B100DB
:100848000030B2004708B4004608B3000A128A1103
:1008580015230A128A11831203133108FF007F0837
:10086800BB000A30B1000030B2004708B4004608A7
:10087800B3000A128A11DC210A128A1183120313A7
:100888003108FF007F08BC0085163B080A128A1150
:10089800AE270A128A111A3083120313BA00F730EE
:1008A800B900B90B552CBA0B552C5A2C83120313CB
:1008B80085123C080A128A11AE270A128A1183127D
:1008C800031305161A3083120313BA00F730B90060
:1008D800B90B6C2CBA0B6C2C712C831203130512F8
:1008E80008000A3083120313B1000030B200450833
:1008F800B4004408B3000A128A117A260A128A112F
:10090800831203133108FF007F08BA000A30B100D0
:100918000030B2004508B4004408B3000A128A1136
:100928006D250A128A11831203133108FF007F080C
:10093800BB0085163A080A128A11AE270A128A11D4
:100948001A3083120313B900F730B800B80BAA2C79
:10095800B90BAA2CAF2C8312031385123B080A1279
:100968008A11AE270A128A118312031305161A3048
:1009780083120313B900F730B800B80BC12CB90BB8
:10098800C12CC62C8312031305120800831203130B
:100998004608053EB10047080318013E003EB20074
:1009A80045083202031DDA2C440831020318DD2CF5
:1009B800DE2CE12CCC01CC0AF72C4608FB3EB1001A
:1009C80047080318013EFF3EB20032084502031DE6
:1009D800EF2C310844020318F22CF32CF72C0230C8
:1009E800FF007F08CC004608013EB1004708031805
:1009F800013E003EB20032084502031D052D3108B4
:100A080044020318082D092D1E2D4608FF3EB1008B
:100A180047080318013EFF3EB20045083202031D95
:100A2800172D4408310203181A2D1B2D1E2DCC0139
:100A3800071187120800F900302D013083120313C3
:100A48009F00432D0930831203139F00432D11305B
:100A5800831203139F00432D7908F200F3017308F2
:100A6800003A0319382D432D7208003A0319212D35
:100A7800013A0319262D033A03192B2D432D83120E
:100A880003131F151F19492D4A2D462D83160313CD
:100A98001E08F20006300310F20CFF3E031D4F2D16
:100AA8007208F300F401831203131E08F500F6011F
:100AB8000310F50DF60D0310F50DF60D730875040A
:100AC800F70074087604F8007708F0007808F10059
:100AD800080083120313B601B70131083204031961
:100AE800762D772DAE2DB501B50A852D0130031071
:100AF800B10DB20DFF3E031D7B2D0130FF007F08B5
:100B0800B507B21F882D892D7A2D01300310B60D37
:100B1800B70DFF3E031D8A2D32083402031D962DA2
:100B280031083302031C992D9A2DA12D3108B302E7
:100B38003208031CB403B402361401300310B20C9B
:100B4800B10CFF3E031DA22D0130B502031DAD2DD2
:100B5800AE2D892D3708B2003608B10008002830BC
:100B68008312031394008316031391012008A40031
:100B78002108A5002208A6002308A70002300310B8
:100B8800A40DA50DA60DA70DFF3E031DC32D270817
:100B980083120313B4008316031326088312031366
:100BA800B30083160313250883120313B2008316B8
:100BB8000313240883120313B1000030B8007A30FD
:100BC800B7001230B6000030B5000A128A1145226B
:100BD8000A128A11831203133108FF3E8316031386
:100BE80093009401871507160800F901FA017508A2
:100BF80076040319002E012E382EFB01FB0A0F2E56
:100C080001300310F50DF60DFF3E031D052E0130D2
:100C1800FF007F08FB07F61F122E132E042E01304B
:100C28000310F90DFA0DFF3E031D142E7608780205
:100C3800031D202E75087702031C232E242E2B2E2D
:100C48007508F7027608031CF803F80279140130D6
:100C58000310F60CF50CFF3E031D2C2E0130FB0291
:100C6800031D372E382E132E7A08F6007908F50062
:100C78000800831203131014861D432E442E482E99
:100C8800061A472E482E4D2E0230FF007F08DE0040
:100C9800792E0A128A1175240A128A110A128A11E7
:100CA800CA240A128A11642E0A128A15B2270A1255
:100CB8008A11792E0A128A15AD270A128A11792EFD
:100CC800831203134C08BC00BD013D08003A031908
:100CD8006E2E792E3C08003A0319792E013A031931
:100CE800582E033A03195E2E792E08008312031337
:100CF800310832040319812E822EB12EB501B50AAE
:100D0800902E01300310B10DB20DFF3E031D862E4B
:100D18000130FF007F08B507B21F932E942E852E51
:100D280032083402031D9A2E31083302031C9D2E0B
:100D38009E2EA42E3108B3023208031CB403B40259
:100D480001300310B20CB10CFF3E031DA52E01307B
:100D5800B502031DB02EB12E942E3408B20033080C
:100D6800B1000800700871040319BB2EBC2EEB2ECD
:100D7800F401F40ACA2E01300310F00DF10DFF3E04
:100D8800031DC02E0130FF007F08F407F11FCD2E90
:100D9800CE2EBF2E71087302031DD42E7008720266
:100DA800031CD72ED82EDE2E7008F2027108031C01
:100DB800F303F30201300310F10CF00CFF3E031DA6
:100DC800DF2E0130F402031DEA2EEB2ECE2E73081F
:100DD800F1007208F00008000A128A15C5270A12E5
:100DE8008A11A0300A128A1197270A128A118312CF
:100DF800031332080A128A1197270A128A110A1253
:100E08008A15C5270A128A11A1300A128A11972752
:100E18000A128A110A128A1180270A128A11FF00FF
:100E28007F0883120313B4000A128A15F4270A12E2
:100E38008A110A128A15CE270A128A1183120313FD
:100E48003408080083120313B3000A128A15C52751
:100E58000A128A11342F0A128A15E0270A128A11F7
:100E6800A0300A128A1197270A128A11003A031D24
:100E78003E2F3F2F2F2F8312031333080A128A1194
:100E880097270A128A118312031332080A128A1149
:100E980097270A128A110A128A15CE270A128A116E
:100EA800080083120313A001A1017A1C5C2F5D2F97
:100EB800652F7C0883120313A0070318A10A7D0875
:100EC800A10701300310FC0DFD0DFF3E031D662F29
:100ED80001300310FB0CFA0CFF3E031D6D2F7A083E
:100EE8007B04031D782F792F592F831203132108B0
:100EF800FB002008FA0008000A128A11E8270A12E3
:100F08008A1183160313911583128C1D8C2F8D2F34
:100F1800882F8C110A128A11E8270A128A11831263
:100F280003131308080083120313B1000A128A116D
:100F3800E8270A128A1183120313310893008C1DC3
:100F4800A62FA72FA32F8C11003083160313111B74
:100F58000130080083120313B2000A30320203186A
:100F6800B62FB72FC22F3208533E840083130008D0
:100F7800FF007F08B10031088800C32F88010800EE
:100F88007E088A007F0882000A128A11C4270A1282
:100F98008A118000840A04087D0603190034FF0AB8
:100FA8000319FE0AC82F3C30831203138F00AF3099
:100FB8008E00901010129012831603130C148312D3
:100FC80003130C100B170800831603131419ED2FC5
:100FD800EE2FE82F11081F39031DF32FF42FE82FE8
:100FE8000800BF3406345B344F3466346D347D34C6
:080FF8000734FF346F340134AB
:101F500083120313071187120800831203138716D5
:101F600007110800831203130715871208000B16C8
:101F70008316031301138B17080064008001840A81
:101F80000406031900340406BE2F0A128A11E8273A
:101F90000A128A1583160313111408000A128A11F3
:101FA000E8270A128A158316031311150800023058
:101FB000831603139F004130831203139F00080010
:101FC0000A128A11E8270A128A158316031391143C
:101FD0000800831203131010071187120A128A11C6
:101FE0002F200A128A1508008316031391160A126D
:101FF0008A11E8270A128A1583160313111608009E
:02400E003A3F37
:00000001FF
