:020000040000FA
:060000000A128A110C280F
:10000800FE00030EF0000A08F1000A128A11352BCF
:100018000A128A110F280A128A1161230A128A11F8
:10002800C4000A128A1162230A128A11C5000A1230
:100038008A115F230A128A11FA000A128A116023B0
:100048000A128A11FB00B801B901BA01BB01BC014F
:10005800BD01BE01BF01C001C101C201C3018301CD
:100068000A128A11E52883120313B001B101CA28C4
:1000780083120313871602300A128A1146220A12C3
:100088008A11730883120313A8007208A7000A30A4
:10009800A9000030AA000A128A110E230A128A1136
:1000A800831203132708AE002808AF000310AF0C13
:1000B800AE0C2E08AB002F08AC002C08A5002B08AE
:1000C800A4002D08FF007F08A6000A128A11EA2161
:1000D8000A128A1183120313851205162D08023E8F
:1000E800840083130008FF007F08B20032080A1258
:1000F8008A118B210A128A118312031388004E3049
:1001080083120313AF00EA30AE00AE0B8928AF0BA1
:100118008928000083120313051285162D08033E53
:10012800840083130008FF007F08B30033080A1215
:100138008A118B210A128A118312031388004E3008
:1001480083120313AF00EA30AE00AE0BA928AF0B41
:10015800A9280000831203133208AE00AF012E084D
:10016800A7002F08A8000A30A9000030AA000A1228
:100178008A110E230A128A118312031333082707E0
:10018800B0000030031801302807B1003A083B04DA
:100198000319CF28D028DD283108803AFF008030A5
:1001A8007F02031DD9283D303002031CDC28DD28DE
:1001B8003C28013083120313BC000030BD008712B5
:1001C80008000A128A1159230A128A110730831665
:1001D8000313850088018312031388018316031310
:1001E800871286138312031386138316031386124A
:1001F8008312031386120A128A1150230A128A11D3
:1002080080293C083D04031D0A290B2919293908AE
:10021800AC003808AB003E30FF007F08AD000A1282
:100228008A1137200A128A11802902300A128A118B
:1002380046220A128A11730883120313A80072084F
:10024800A7000A30A9000030AA000A128A110E235A
:100258000A128A11831203132708B4002808B5006C
:100268000310B50CB40C3408B8003508B9003908C7
:10027800A5003808A4003E30FF007F08A6000A1237
:100288008A11EA210A128A118312031385120516AC
:100298004008FF007F08B60036080A128A118B2131
:1002A8000A128A118312031388004E308312031333
:1002B800B500EA30B400B40B5F29B50B5F29000024
:1002C80083120313051285164108FF007F08B70043
:1002D80037080A128A118B210A128A118312031312
:1002E80088004E3083120313B500EA30B400B40B13
:1002F8007B29B50B7B290000831203133A083B04C2
:10030800031D8729882905290A128A110C28F40057
:10031800AF293F30E9290630E9295B30E9294F3018
:10032800E9296630E9296D30E9297D30E929073066
:10033800E9297F30E9296F30E9297730E9297C30CC
:10034800E9295830E9295E30E9297930E9297130FD
:10035800E9290030E9297408F200F3017308003A2A
:100368000319B729AD297208003A03198D29013AF2
:1003780003198F29033A03199129013A031993297B
:10038800073A03199529013A03199729033A0319DA
:100398009929013A03199B290F3A03199D29013A12
:1003A80003199F29033A0319A129013A0319A3291B
:1003B800073A0319A529013A0319A729033A03198A
:1003C800A929013A0319AB29AD2908006430831221
:1003D8000313A0000030A1002508F5002408F4004C
:1003E800E830F2000330F3000A128A11D4220A120C
:1003F8008A11730883120313A3007208A2000A1259
:100408008A118E220A128A11831203132008FF0010
:100418002608023E84007F08831380000A30A0006B
:100428000030A1002508F5002408F4006430F2002B
:100438000030F3000A128A11D4220A128A117308B2
:1004480083120313A3007208A2000A128A118E22D3
:100458000A128A11831203132008FF002608033E9C
:1004680084007F08831380002608033E8400000868
:1004780003193F2A402A452A2608033E84000130F2
:1004880080020800F400512A01309F00662A0930D2
:100498009F00662A11309F00662A7408831203138E
:1004A800A000A1012108003A03195B2A662A200846
:1004B800003A0319482A013A03194B2A033A031947
:1004C8004E2A662A1F151F196A2A6B2A672A83165D
:1004D80003131E0883120313A00006300310A00C98
:1004E800FF3E031D722A2008A100A2011E08A300D6
:1004F800A4010310A30DA40D0310A30DA40D21083E
:100508002304A50022082404A6002508F2002608D2
:10051800F3000800F801F9018312031320082104ED
:100528000319972A982ACF2AF701F70AA62A013031
:100538000310A00DA10DFF3E031D9C2A0130FF00F2
:100548007F08F707A11FA92AAA2A9B2A01300310AE
:10055800F80DF90DFF3E031DAB2A21082302031DE8
:10056800B72A20082202031CBA2ABB2AC22A20085A
:10057800A2022108031CA303A3027814013003106C
:10058800A10CA00CFF3E031DC32A0130F702031D76
:10059800CE2ACF2AAA2A7908A1007808A000080044
:1005A800720873040319D92ADA2A092BF601F60A04
:1005B800E82A01300310F20DF30DFF3E031DDE2A79
:1005C8000130FF007F08F607F31FEB2AEC2ADD2A2B
:1005D80073087502031DF22A72087402031CF52AB7
:1005E800F62AFC2A7208F4027308031CF503F502C4
:1005F80001300310F30CF20CFF3E031DFD2A0130FD
:10060800F602031D082B092BEC2A7508F300740861
:10061800F2000800F501F60183120313271C152BBD
:10062800162B1C2B2908F5070318F60A2A08F607C3
:1006380001300310A90DAA0DFF3E031D1D2B01302B
:100648000310A80CA70CFF3E031D242B2708280421
:10065800031D2F2B302B102B7608A8007508A70038
:1006680008008B1C382B392B492B8B108312031352
:100678003A083B040319412B422B452BBA01BB0115
:10068800492B0130BA000030BB0071088A00700E97
:100698008300FE0E7E0E09000230831603139F00AE
:1006A8004130831203139F0008000B1683160313AF
:0E06B80001138B170800013400343C34003469
:02400E003A3F37
:00000001FF
